{"abi":[{"type":"constructor","inputs":[{"name":"_nftManager","type":"address","internalType":"contract INonfungiblePositionManager"},{"name":"_weth","type":"address","internalType":"contract IWETH"},{"name":"_feeReceiver","type":"address","internalType":"address"}],"stateMutability":"nonpayable"},{"type":"function","name":"FRACTION_DENOMINATOR","inputs":[],"outputs":[{"name":"","type":"uint256","internalType":"uint256"}],"stateMutability":"view"},{"type":"function","name":"MAX_BUY_FEE","inputs":[],"outputs":[{"name":"","type":"uint256","internalType":"uint256"}],"stateMutability":"view"},{"type":"function","name":"MAX_SELL_FEE","inputs":[],"outputs":[{"name":"","type":"uint256","internalType":"uint256"}],"stateMutability":"view"},{"type":"function","name":"MIN_BUY","inputs":[],"outputs":[{"name":"","type":"uint256","internalType":"uint256"}],"stateMutability":"view"},{"type":"function","name":"UNISWAP_V3_NFT_MANAGER","inputs":[],"outputs":[{"name":"","type":"address","internalType":"contract INonfungiblePositionManager"}],"stateMutability":"view"},{"type":"function","name":"buyExactEth","inputs":[{"name":"_recipient","type":"address","internalType":"address"},{"name":"_minAmountOut","type":"uint256","internalType":"uint256"}],"outputs":[],"stateMutability":"payable"},{"type":"function","name":"buyExactTokens","inputs":[{"name":"_recipient","type":"address","internalType":"address"},{"name":"_amount","type":"uint256","internalType":"uint256"}],"outputs":[],"stateMutability":"payable"},{"type":"function","name":"curve","inputs":[],"outputs":[{"name":"","type":"address","internalType":"contract ICurve"}],"stateMutability":"view"},{"type":"function","name":"curveParameters","inputs":[],"outputs":[{"name":"yMin","type":"uint128","internalType":"uint128"},{"name":"yMax","type":"uint128","internalType":"uint128"}],"stateMutability":"view"},{"type":"function","name":"ethPaid","inputs":[],"outputs":[{"name":"","type":"uint256","internalType":"uint256"}],"stateMutability":"view"},{"type":"function","name":"feeParameters","inputs":[],"outputs":[{"name":"buyFee","type":"uint128","internalType":"uint128"},{"name":"sellFee","type":"uint128","internalType":"uint128"}],"stateMutability":"view"},{"type":"function","name":"feeReceiver","inputs":[],"outputs":[{"name":"","type":"address","internalType":"address"}],"stateMutability":"view"},{"type":"function","name":"gaugeActive","inputs":[],"outputs":[{"name":"","type":"bool","internalType":"bool"}],"stateMutability":"view"},{"type":"function","name":"gaugeClosable","inputs":[],"outputs":[{"name":"","type":"bool","internalType":"bool"}],"stateMutability":"view"},{"type":"function","name":"getCurrentPrice","inputs":[],"outputs":[{"name":"","type":"uint256","internalType":"uint256"}],"stateMutability":"view"},{"type":"function","name":"getGaugeStatistics","inputs":[],"outputs":[{"name":"active","type":"bool","internalType":"bool"},{"name":"closable","type":"bool","internalType":"bool"},{"name":"tokens","type":"uint256","internalType":"uint256"},{"name":"target","type":"uint256","internalType":"uint256"},{"name":"supply","type":"uint256","internalType":"uint256"},{"name":"eth","type":"uint256","internalType":"uint256"},{"name":"currentPrice","type":"uint256","internalType":"uint256"}],"stateMutability":"view"},{"type":"function","name":"initialize","inputs":[{"name":"_token","type":"address","internalType":"contract LaunchpadToken"},{"name":"_curve","type":"address","internalType":"contract ICurve"},{"name":"_lpReceiver","type":"address","internalType":"address"},{"name":"_amount","type":"uint256","internalType":"uint256"},{"name":"_tokenTarget","type":"uint256","internalType":"uint256"},{"name":"_curveParameters","type":"tuple","internalType":"struct Gauge.CurveParameters","components":[{"name":"yMin","type":"uint128","internalType":"uint128"},{"name":"yMax","type":"uint128","internalType":"uint128"}]},{"name":"_feeParameters","type":"tuple","internalType":"struct Gauge.FeeParameters","components":[{"name":"buyFee","type":"uint128","internalType":"uint128"},{"name":"sellFee","type":"uint128","internalType":"uint128"}]}],"outputs":[],"stateMutability":"nonpayable"},{"type":"function","name":"launchPool","inputs":[],"outputs":[{"name":"","type":"address","internalType":"address"},{"name":"","type":"uint256","internalType":"uint256"}],"stateMutability":"nonpayable"},{"type":"function","name":"lpReceiver","inputs":[],"outputs":[{"name":"","type":"address","internalType":"address"}],"stateMutability":"view"},{"type":"function","name":"pool","inputs":[],"outputs":[{"name":"","type":"address","internalType":"address"}],"stateMutability":"view"},{"type":"function","name":"quoteBuyExactEth","inputs":[{"name":"_amount","type":"uint256","internalType":"uint256"}],"outputs":[{"name":"","type":"uint256","internalType":"uint256"},{"name":"","type":"uint256","internalType":"uint256"}],"stateMutability":"view"},{"type":"function","name":"quoteBuyExactTokens","inputs":[{"name":"_amount","type":"uint256","internalType":"uint256"}],"outputs":[{"name":"","type":"uint256","internalType":"uint256"},{"name":"","type":"uint256","internalType":"uint256"}],"stateMutability":"view"},{"type":"function","name":"quoteSellExactEth","inputs":[{"name":"_amount","type":"uint256","internalType":"uint256"}],"outputs":[{"name":"","type":"uint256","internalType":"uint256"},{"name":"","type":"uint256","internalType":"uint256"}],"stateMutability":"view"},{"type":"function","name":"quoteSellExactTokens","inputs":[{"name":"_amount","type":"uint256","internalType":"uint256"}],"outputs":[{"name":"","type":"uint256","internalType":"uint256"},{"name":"","type":"uint256","internalType":"uint256"}],"stateMutability":"view"},{"type":"function","name":"sellExactEth","inputs":[{"name":"_recipient","type":"address","internalType":"address"},{"name":"_amountOut","type":"uint256","internalType":"uint256"},{"name":"_maxInput","type":"uint256","internalType":"uint256"}],"outputs":[],"stateMutability":"nonpayable"},{"type":"function","name":"sellExactTokens","inputs":[{"name":"_recipient","type":"address","internalType":"address"},{"name":"_amountIn","type":"uint256","internalType":"uint256"},{"name":"_minAmountOut","type":"uint256","internalType":"uint256"}],"outputs":[],"stateMutability":"nonpayable"},{"type":"function","name":"token","inputs":[],"outputs":[{"name":"","type":"address","internalType":"contract LaunchpadToken"}],"stateMutability":"view"},{"type":"function","name":"tokenPurchased","inputs":[],"outputs":[{"name":"","type":"uint256","internalType":"uint256"}],"stateMutability":"view"},{"type":"function","name":"tokenTarget","inputs":[],"outputs":[{"name":"","type":"uint256","internalType":"uint256"}],"stateMutability":"view"},{"type":"function","name":"totalSupply","inputs":[],"outputs":[{"name":"","type":"uint256","internalType":"uint256"}],"stateMutability":"view"},{"type":"function","name":"weth","inputs":[],"outputs":[{"name":"","type":"address","internalType":"contract IWETH"}],"stateMutability":"view"},{"type":"event","name":"Buy","inputs":[{"name":"recipient","type":"address","indexed":true,"internalType":"address"},{"name":"amount","type":"uint256","indexed":false,"internalType":"uint256"},{"name":"cost","type":"uint256","indexed":false,"internalType":"uint256"},{"name":"startingPrice","type":"uint256","indexed":false,"internalType":"uint256"}],"anonymous":false},{"type":"event","name":"Initialized","inputs":[{"name":"version","type":"uint64","indexed":false,"internalType":"uint64"}],"anonymous":false},{"type":"event","name":"PoolLaunched","inputs":[{"name":"token","type":"address","indexed":true,"internalType":"address"},{"name":"pool","type":"address","indexed":true,"internalType":"address"},{"name":"tokenId","type":"uint256","indexed":false,"internalType":"uint256"}],"anonymous":false},{"type":"event","name":"Sell","inputs":[{"name":"recipient","type":"address","indexed":true,"internalType":"address"},{"name":"amount","type":"uint256","indexed":false,"internalType":"uint256"},{"name":"proceeds","type":"uint256","indexed":false,"internalType":"uint256"},{"name":"startingPrice","type":"uint256","indexed":false,"internalType":"uint256"}],"anonymous":false},{"type":"error","name":"Gauge__BondingCurveNotMature","inputs":[]},{"type":"error","name":"Gauge__DesiredExceedsAvailable","inputs":[]},{"type":"error","name":"Gauge__ExcessiveFee","inputs":[]},{"type":"error","name":"Gauge__GaugeClosed","inputs":[]},{"type":"error","name":"Gauge__InsufficientOutput","inputs":[]},{"type":"error","name":"Gauge__InsufficientPayment","inputs":[]},{"type":"error","name":"Gauge__InvalidAmount","inputs":[]},{"type":"error","name":"Gauge__InvalidCurveParameters","inputs":[]},{"type":"error","name":"Gauge__InvalidTokenTarget","inputs":[]},{"type":"error","name":"Gauge__MaxInputExceeded","inputs":[]},{"type":"error","name":"Gauge__MinBuy","inputs":[]},{"type":"error","name":"Gauge__ZeroAddress","inputs":[]},{"type":"error","name":"InvalidInitialization","inputs":[]},{"type":"error","name":"NotInitializing","inputs":[]}],"bytecode":{"object":"0x60e06040523480156200001157600080fd5b506040516200321e3803806200321e83398101604081905262000034916200017a565b6001600160a01b03831615806200005257506001600160a01b038216155b806200006557506001600160a01b038116155b15620000845760405163068d004f60e51b815260040160405180910390fd5b6001600160a01b0380841660805282811660a052811660c052620000a7620000b0565b505050620001ce565b7ff0c57e16840df040f15088dc2f81fe391c3923bec73e23a9662efc9c229c6a00805468010000000000000000900460ff1615620001015760405163f92ee8a960e01b815260040160405180910390fd5b80546001600160401b0390811614620001615780546001600160401b0319166001600160401b0390811782556040519081527fc7f505b2f371ae2175ee4913f4499e1f2633a7b5936321eed1cdaeb6115181d29060200160405180910390a15b50565b6001600160a01b03811681146200016157600080fd5b6000806000606084860312156200019057600080fd5b83516200019d8162000164565b6020850151909350620001b08162000164565b6040850151909250620001c38162000164565b809150509250925092565b60805160a05160c051612fb06200026e600039600081816105220152818161082901528181610c5c01528181611daf01526120990152600081816102d601528181610f9d0152818161114a015281816111cc01528181611233015281816112d10152818161137c0152818161172901526117d401526000818161058c0152818161102b015281816110fc0152818161152401526116730152612fb06000f3fe6080604052600436106101d85760003560e01c8063867508ad11610102578063bb9ae51a11610095578063e71bfbeb11610064578063e71bfbeb146105e1578063eb91d37e146105f7578063fc0c546a1461060c578063ff20edb01461062c57600080fd5b8063bb9ae51a1461055a578063c0127c3d1461057a578063ccebd4ec146105ae578063d47919d1146105c157600080fd5b8063a82f6de5116100d1578063a82f6de5146104d9578063af769545146104f0578063b3f0067414610510578063b99f60731461054457600080fd5b8063867508ad1461031857806398c7adf3146103fa5780639a97fd9b14610464578063a1d4958c146104a557600080fd5b80635d6434931161017a57806373d796b21161014957806373d796b214610353578063782e1e6c14610373578063833b3fd11461038957806383a9129f146103ae57600080fd5b80635d643493146102a85780635e7195ea146102f85780636e628f3b146103185780637165485d1461033357600080fd5b80631f0c57fc116101b65780631f0c57fc14610253578063366ad250146102735780633af96b90146102a85780633fc8cef3146102c457600080fd5b806313aea39e146101dd57806316f0115b146101f257806318160ddd1461022f575b600080fd5b6101f06101eb366004612bd0565b61064c565b005b3480156101fe57600080fd5b50600354610212906001600160a01b031681565b6040516001600160a01b0390911681526020015b60405180910390f35b34801561023b57600080fd5b5061024560095481565b604051908152602001610226565b34801561025f57600080fd5b50600254610212906001600160a01b031681565b34801561027f57600080fd5b5061029361028e366004612bfc565b610912565b60408051928352602083019190915201610226565b3480156102b457600080fd5b50610245670de0b6b3a764000081565b3480156102d057600080fd5b506102127f000000000000000000000000000000000000000000000000000000000000000081565b34801561030457600080fd5b506101f0610313366004612c15565b610aa8565b34801561032457600080fd5b5061024566b1a2bc2ec5000081565b34801561033f57600080fd5b50600154610212906001600160a01b031681565b34801561035f57600080fd5b5061029361036e366004612bfc565b610d27565b34801561037f57600080fd5b5061024560085481565b34801561039557600080fd5b5061039e610e6d565b6040519015158152602001610226565b3480156103ba57600080fd5b506103c3610e8e565b6040805197151588529515156020880152948601939093526060850191909152608084015260a083015260c082015260e001610226565b34801561040657600080fd5b5060055461043b906fffffffffffffffffffffffffffffffff8082169170010000000000000000000000000000000090041682565b604080516fffffffffffffffffffffffffffffffff938416815292909116602083015201610226565b34801561047057600080fd5b5060045461043b906fffffffffffffffffffffffffffffffff8082169170010000000000000000000000000000000090041682565b3480156104b157600080fd5b506104ba610ed7565b604080516001600160a01b039093168352602083019190915201610226565b3480156104e557600080fd5b50600854151561039e565b3480156104fc57600080fd5b5061029361050b366004612bfc565b611acd565b34801561051c57600080fd5b506102127f000000000000000000000000000000000000000000000000000000000000000081565b34801561055057600080fd5b5061024560065481565b34801561056657600080fd5b506101f0610575366004612c15565b611c06565b34801561058657600080fd5b506102127f000000000000000000000000000000000000000000000000000000000000000081565b6101f06105bc366004612bd0565b611e7a565b3480156105cd57600080fd5b506101f06105dc366004612cf2565b612176565b3480156105ed57600080fd5b5061024560075481565b34801561060357600080fd5b506102456127d2565b34801561061857600080fd5b50600054610212906001600160a01b031681565b34801561063857600080fd5b50610293610647366004612bfc565b6128c4565b600854610685576040517fd1c1fc6600000000000000000000000000000000000000000000000000000000815260040160405180910390fd5b60006006546008546106979190612da2565b82116106a357816106b3565b6006546008546106b39190612da2565b9050670de0b6b3a76400008110156106f7576040517f60e4e42a00000000000000000000000000000000000000000000000000000000815260040160405180910390fd5b60008061070383611acd565b9150915081341015610741576040517f155ca84e00000000000000000000000000000000000000000000000000000000815260040160405180910390fd5b600061074b6127d2565b9050836006600082825461075f9190612db5565b9091555061076f90508284612da2565b600760008282546107809190612db5565b90915550506000546040517fa9059cbb0000000000000000000000000000000000000000000000000000000081526001600160a01b038881166004830152602482018790529091169063a9059cbb906044016020604051808303816000875af11580156107f1573d6000803e3d6000fd5b505050506040513d601f19601f820116820180604052508101906108159190612dc8565b508115610874576040516001600160a01b037f0000000000000000000000000000000000000000000000000000000000000000169083156108fc029084906000818181858888f19350505050158015610872573d6000803e3d6000fd5b505b823411156108bd576001600160a01b0386166108fc6108938534612da2565b6040518115909202916000818181858888f193505050501580156108bb573d6000803e3d6000fd5b505b60408051858152602081018590529081018290526001600160a01b038716907fbeae048c6d270d9469f86cf6e8fedda3c60ad770f16c24c9fc131c8e9a09101d906060015b60405180910390a2505050505050565b600080600654831115610951576040517ffbb81d9d00000000000000000000000000000000000000000000000000000000815260040160405180910390fd5b6001546006546000916001600160a01b031690633a53e96e90610975908790612da2565b6006546004805460085460095460405160e088901b7fffffffff000000000000000000000000000000000000000000000000000000001681529384019590955260248301939093526fffffffffffffffffffffffffffffffff8082166044840152700100000000000000000000000000000000909104166064820152608481019190915260a481019190915260c401602060405180830381865afa158015610a21573d6000803e3d6000fd5b505050506040513d601f19601f82011682018060405250810190610a459190612dea565b600554909150600090670de0b6b3a764000090610a889070010000000000000000000000000000000090046fffffffffffffffffffffffffffffffff1684612e03565b610a929190612e49565b9050610a9e8183612da2565b9590945092505050565b600854610ae1576040517fd1c1fc6600000000000000000000000000000000000000000000000000000000815260040160405180910390fd5b811580610aef575060065482115b15610b26576040517f4d7b434400000000000000000000000000000000000000000000000000000000815260040160405180910390fd5b600080610b3284610912565b9150915082821015610b70576040517fe88a633a00000000000000000000000000000000000000000000000000000000815260040160405180910390fd5b6000610b7a6127d2565b90508460066000828254610b8e9190612da2565b90915550610b9e90508284612db5565b60076000828254610baf9190612da2565b90915550506000546040517f23b872dd000000000000000000000000000000000000000000000000000000008152336004820152306024820152604481018790526001600160a01b03909116906323b872dd906064016020604051808303816000875af1158015610c24573d6000803e3d6000fd5b505050506040513d601f19601f82011682018060405250810190610c489190612dc8565b508115610ca7576040516001600160a01b037f0000000000000000000000000000000000000000000000000000000000000000169083156108fc029084906000818181858888f19350505050158015610ca5573d6000803e3d6000fd5b505b6040516001600160a01b0387169084156108fc029085906000818181858888f19350505050158015610cdd573d6000803e3d6000fd5b5060408051868152602081018590529081018290526001600160a01b038716907f846c37eef631e0943682d87352ec117c20008eb7f425c9b85ac011a6d4774cc090606001610902565b60055460009081908190670de0b6b3a764000090610d57906fffffffffffffffffffffffffffffffff1686612e03565b610d619190612e49565b6001546007549192506000916001600160a01b039091169063bd232ece9084610d8a8983612db5565b610d949190612da2565b6004805460085460095460405160e088901b7fffffffff000000000000000000000000000000000000000000000000000000001681529384019590955260248301939093526fffffffffffffffffffffffffffffffff8082166044840152700100000000000000000000000000000000909104166064820152608481019190915260a481019190915260c4015b602060405180830381865afa158015610e3e573d6000803e3d6000fd5b505050506040513d601f19601f82011682018060405250810190610e629190612dea565b959194509092505050565b6000670de0b6b3a7640000600654600854610e889190612da2565b10905090565b6000806000806000806000610ea4600854151590565b9650610eae610e6d565b95506006549450600854935060095492506007549150610ecc6127d2565b905090919293949596565b600080610ee5600854151590565b610f1b576040517fd1c1fc6600000000000000000000000000000000000000000000000000000000815260040160405180910390fd5b610f23610e6d565b610f59576040517fc0bd5e1b00000000000000000000000000000000000000000000000000000000815260040160405180910390fd5b6000600681905560088190556007819055604080517fd0e30db000000000000000000000000000000000000000000000000000000000815290516001600160a01b037f0000000000000000000000000000000000000000000000000000000000000000169263d0e30db09247926004808301939282900301818588803b158015610fe257600080fd5b505af1158015610ff6573d6000803e3d6000fd5b50506000546040517f095ea7b30000000000000000000000000000000000000000000000000000000081526001600160a01b037f0000000000000000000000000000000000000000000000000000000000000000811660048301527fffffffffffffffffffffffffffffffffffffffffffffffffffffffffffffffff6024830152909116935063095ea7b3925060440190506020604051808303816000875af11580156110a7573d6000803e3d6000fd5b505050506040513d601f19601f820116820180604052508101906110cb9190612dc8565b506040517f095ea7b30000000000000000000000000000000000000000000000000000000081526001600160a01b037f0000000000000000000000000000000000000000000000000000000000000000811660048301527fffffffffffffffffffffffffffffffffffffffffffffffffffffffffffffffff60248301527f0000000000000000000000000000000000000000000000000000000000000000169063095ea7b3906044016020604051808303816000875af1158015611193573d6000803e3d6000fd5b505050506040513d601f19601f820116820180604052508101906111b79190612dc8565b50600080548190819081906001600160a01b037f000000000000000000000000000000000000000000000000000000000000000081169116101561134b576000546040517f70a082310000000000000000000000000000000000000000000000000000000081523060048201526001600160a01b0390911694507f0000000000000000000000000000000000000000000000000000000000000000935084906370a0823190602401602060405180830381865afa15801561127c573d6000803e3d6000fd5b505050506040513d601f19601f820116820180604052508101906112a09190612dea565b6040517f70a082310000000000000000000000000000000000000000000000000000000081523060048201529092507f00000000000000000000000000000000000000000000000000000000000000006001600160a01b0316906370a0823190602401602060405180830381865afa158015611320573d6000803e3d6000fd5b505050506040513d601f19601f820116820180604052508101906113449190612dea565b9050611481565b6000546040517f70a082310000000000000000000000000000000000000000000000000000000081523060048201527f000000000000000000000000000000000000000000000000000000000000000095506001600160a01b039182169450908516906370a0823190602401602060405180830381865afa1580156113d4573d6000803e3d6000fd5b505050506040513d601f19601f820116820180604052508101906113f89190612dea565b6000546040517f70a082310000000000000000000000000000000000000000000000000000000081523060048201529193506001600160a01b0316906370a0823190602401602060405180830381865afa15801561145a573d6000803e3d6000fd5b505050506040513d601f19601f8201168201806040525081019061147e9190612dea565b90505b6000633b9aca006114ad8461149e85670de0b6b3a7640000612e03565b6114a89190612e49565b612a1e565b6114c4906c01000000000000000000000000612e03565b6114ce9190612e49565b6040517f13ead5620000000000000000000000000000000000000000000000000000000081526001600160a01b0387811660048301528681166024830152612710604483015280831660648301529192506000917f000000000000000000000000000000000000000000000000000000000000000016906313ead562906084016020604051808303816000875af115801561156d573d6000803e3d6000fd5b505050506040513d601f19601f820116820180604052508101906115919190612e84565b600380547fffffffffffffffffffffffff0000000000000000000000000000000000000000166001600160a01b0383811691909117909155604080516101608101825289831681528883166020820152612710818301527ffffffffffffffffffffffffffffffffffffffffffffffffffffffffffff276606060820152620d89a0608082015260a0810188905260c08101879052600160e0820181905261010082015260025483166101208201524261014082015290517f883164560000000000000000000000000000000000000000000000000000000081529293506000927f0000000000000000000000000000000000000000000000000000000000000000909216916388316456916116a891600401612ea1565b6080604051808303816000875af11580156116c7573d6000803e3d6000fd5b505050506040513d601f19601f820116820180604052508101906116eb9190612f65565b50506040517f70a082310000000000000000000000000000000000000000000000000000000081523060048201529192506000916001600160a01b037f00000000000000000000000000000000000000000000000000000000000000001691506370a0823190602401602060405180830381865afa158015611771573d6000803e3d6000fd5b505050506040513d601f19601f820116820180604052508101906117959190612dea565b11156118d4576002546040517f70a082310000000000000000000000000000000000000000000000000000000081523060048201526001600160a01b037f000000000000000000000000000000000000000000000000000000000000000081169263a9059cbb9291169083906370a0823190602401602060405180830381865afa158015611827573d6000803e3d6000fd5b505050506040513d601f19601f8201168201806040525081019061184b9190612dea565b6040517fffffffff0000000000000000000000000000000000000000000000000000000060e085901b1681526001600160a01b03909216600483015260248201526044016020604051808303816000875af11580156118ae573d6000803e3d6000fd5b505050506040513d601f19601f820116820180604052508101906118d29190612dc8565b505b600080546040517f70a082310000000000000000000000000000000000000000000000000000000081523060048201526001600160a01b03909116906370a0823190602401602060405180830381865afa158015611936573d6000803e3d6000fd5b505050506040513d601f19601f8201168201806040525081019061195a9190612dea565b1115611a7b576000546002546040517f70a082310000000000000000000000000000000000000000000000000000000081523060048201526001600160a01b039283169263a9059cbb92169083906370a0823190602401602060405180830381865afa1580156119ce573d6000803e3d6000fd5b505050506040513d601f19601f820116820180604052508101906119f29190612dea565b6040517fffffffff0000000000000000000000000000000000000000000000000000000060e085901b1681526001600160a01b03909216600483015260248201526044016020604051808303816000875af1158015611a55573d6000803e3d6000fd5b505050506040513d601f19601f82011682018060405250810190611a799190612dc8565b505b6000546040518281526001600160a01b038481169216907ffbc4df066a054f7adf4b5534fce153278f31b80a90a911a2a59d5d47f15e36439060200160405180910390a3909890975095505050505050565b600154600654600091829182916001600160a01b031690633a53e96e90611af48782612db5565b6004805460085460095460405160e088901b7fffffffff000000000000000000000000000000000000000000000000000000001681529384019590955260248301939093526fffffffffffffffffffffffffffffffff8082166044840152700100000000000000000000000000000000909104166064820152608481019190915260a481019190915260c401602060405180830381865afa158015611b9d573d6000803e3d6000fd5b505050506040513d601f19601f82011682018060405250810190611bc19190612dea565b600554909150600090670de0b6b3a764000090611bf0906fffffffffffffffffffffffffffffffff1684612e03565b611bfa9190612e49565b9050610a9e8183612db5565b600854611c3f576040517fd1c1fc6600000000000000000000000000000000000000000000000000000000815260040160405180910390fd5b81600003611c79576040517f4d7b434400000000000000000000000000000000000000000000000000000000815260040160405180910390fd5b600080611c85846128c4565b9150915082821115611cc3576040517fe291847000000000000000000000000000000000000000000000000000000000815260040160405180910390fd5b6000611ccd6127d2565b90508260066000828254611ce19190612da2565b90915550611cf190508286612db5565b60076000828254611d029190612da2565b90915550506000546040517f23b872dd000000000000000000000000000000000000000000000000000000008152336004820152306024820152604481018590526001600160a01b03909116906323b872dd906064016020604051808303816000875af1158015611d77573d6000803e3d6000fd5b505050506040513d601f19601f82011682018060405250810190611d9b9190612dc8565b508115611dfa576040516001600160a01b037f0000000000000000000000000000000000000000000000000000000000000000169083156108fc029084906000818181858888f19350505050158015611df8573d6000803e3d6000fd5b505b6040516001600160a01b0387169086156108fc029087906000818181858888f19350505050158015611e30573d6000803e3d6000fd5b5060408051848152602081018790529081018290526001600160a01b038716907f846c37eef631e0943682d87352ec117c20008eb7f425c9b85ac011a6d4774cc090606001610902565b600854611eb3576040517fd1c1fc6600000000000000000000000000000000000000000000000000000000815260040160405180910390fd5b34600080611ec083610d27565b9150915083821015611efe576040517fe88a633a00000000000000000000000000000000000000000000000000000000815260040160405180910390fd5b600654600854611f0e9190612da2565b821115611f6f57600654600854611f259190612da2565b9150611f3082611acd565b909350905034831115611f6f576040517f155ca84e00000000000000000000000000000000000000000000000000000000815260040160405180910390fd5b670de0b6b3a7640000821015611fb1576040517f60e4e42a00000000000000000000000000000000000000000000000000000000815260040160405180910390fd5b6000611fbb6127d2565b90508260066000828254611fcf9190612db5565b90915550611fdf90508285612da2565b60076000828254611ff09190612db5565b90915550506000546040517fa9059cbb0000000000000000000000000000000000000000000000000000000081526001600160a01b038881166004830152602482018690529091169063a9059cbb906044016020604051808303816000875af1158015612061573d6000803e3d6000fd5b505050506040513d601f19601f820116820180604052508101906120859190612dc8565b5081156120e4576040516001600160a01b037f0000000000000000000000000000000000000000000000000000000000000000169083156108fc029084906000818181858888f193505050501580156120e2573d6000803e3d6000fd5b505b8334111561212d576001600160a01b0386166108fc6121038634612da2565b6040518115909202916000818181858888f1935050505015801561212b573d6000803e3d6000fd5b505b60408051848152602081018690529081018290526001600160a01b038716907fbeae048c6d270d9469f86cf6e8fedda3c60ad770f16c24c9fc131c8e9a09101d90606001610902565b7ff0c57e16840df040f15088dc2f81fe391c3923bec73e23a9662efc9c229c6a00805468010000000000000000810460ff16159067ffffffffffffffff166000811580156121c15750825b905060008267ffffffffffffffff1660011480156121de5750303b155b9050811580156121ec575080155b15612223576040517ff92ee8a900000000000000000000000000000000000000000000000000000000815260040160405180910390fd5b84547fffffffffffffffffffffffffffffffffffffffffffffffff000000000000000016600117855583156122845784547fffffffffffffffffffffffffffffffffffffffffffffff00ffffffffffffffff16680100000000000000001785555b6001600160a01b038c1615806122a157506001600160a01b038b16155b806122b357506001600160a01b038a16155b156122ea576040517fd1a009e000000000000000000000000000000000000000000000000000000000815260040160405180910390fd5b8815806122f657508789105b1561232d576040517f4d7b434400000000000000000000000000000000000000000000000000000000815260040160405180910390fd5b87600003612367576040517f169b7e1100000000000000000000000000000000000000000000000000000000815260040160405180910390fd5b60008c6001600160a01b03166318160ddd6040518163ffffffff1660e01b8152600401602060405180830381865afa1580156123a7573d6000803e3d6000fd5b505050506040513d601f19601f820116820180604052508101906123cb9190612dea565b885160208a01516040517f0da013430000000000000000000000000000000000000000000000000000000081526fffffffffffffffffffffffffffffffff928316600482015291166024820152604481018b9052606481018290529091506001600160a01b038d1690630da0134390608401602060405180830381865afa15801561245a573d6000803e3d6000fd5b505050506040513d601f19601f8201168201806040525081019061247e9190612dc8565b6124b4576040517fda5a7c8000000000000000000000000000000000000000000000000000000000815260040160405180910390fd5b66b1a2bc2ec5000087600001516fffffffffffffffffffffffffffffffff1611806124fb575066b1a2bc2ec5000087602001516fffffffffffffffffffffffffffffffff16115b15612532576040517f5cf5433400000000000000000000000000000000000000000000000000000000815260040160405180910390fd5b8c6000806101000a8154816001600160a01b0302191690836001600160a01b031602179055508b600160006101000a8154816001600160a01b0302191690836001600160a01b031602179055508a600260006101000a8154816001600160a01b0302191690836001600160a01b031602179055508860088190555087600460008201518160000160006101000a8154816fffffffffffffffffffffffffffffffff02191690836fffffffffffffffffffffffffffffffff16021790555060208201518160000160106101000a8154816fffffffffffffffffffffffffffffffff02191690836fffffffffffffffffffffffffffffffff16021790555090505086600560008201518160000160006101000a8154816fffffffffffffffffffffffffffffffff02191690836fffffffffffffffffffffffffffffffff16021790555060208201518160000160106101000a8154816fffffffffffffffffffffffffffffffff02191690836fffffffffffffffffffffffffffffffff1602179055509050508060098190555060008054906101000a90046001600160a01b03166001600160a01b03166323b872dd33308d6040518463ffffffff1660e01b815260040161271e939291906001600160a01b039384168152919092166020820152604081019190915260600190565b6020604051808303816000875af115801561273d573d6000803e3d6000fd5b505050506040513d601f19601f820116820180604052508101906127619190612dc8565b505083156127c45784547fffffffffffffffffffffffffffffffffffffffffffffff00ffffffffffffffff168555604051600181527fc7f505b2f371ae2175ee4913f4499e1f2633a7b5936321eed1cdaeb6115181d29060200160405180910390a15b505050505050505050505050565b60006127df600854151590565b6127e95750600090565b600154600654600480546008546009546040517fb1c12039000000000000000000000000000000000000000000000000000000008152938401949094526fffffffffffffffffffffffffffffffff80831660248501527001000000000000000000000000000000009092049091166044830152606482015260848101919091526001600160a01b039091169063b1c120399060a401602060405180830381865afa15801561289b573d6000803e3d6000fd5b505050506040513d601f19601f820116820180604052508101906128bf9190612dea565b905090565b60055460009081908190670de0b6b3a7640000906129089070010000000000000000000000000000000090046fffffffffffffffffffffffffffffffff1686612e03565b6129129190612e49565b6007549091506129228286612db5565b111561295a576040517ffbb81d9d00000000000000000000000000000000000000000000000000000000815260040160405180910390fd5b6001546007546000916001600160a01b03169063bd232ece908490612980908990612da2565b61298a9190612da2565b6007546004805460085460095460405160e088901b7fffffffff000000000000000000000000000000000000000000000000000000001681529384019590955260248301939093526fffffffffffffffffffffffffffffffff8082166044840152700100000000000000000000000000000000909104166064820152608481019190915260a481019190915260c401610e21565b600081600003612a3057506000919050565b60006001612a3d84612b0d565b901c6001901b90506001818481612a5657612a56612e1a565b048201901c90506001818481612a6e57612a6e612e1a565b048201901c90506001818481612a8657612a86612e1a565b048201901c90506001818481612a9e57612a9e612e1a565b048201901c90506001818481612ab657612ab6612e1a565b048201901c90506001818481612ace57612ace612e1a565b048201901c90506001818481612ae657612ae6612e1a565b048201901c9050612b0681828581612b0057612b00612e1a565b04612ba2565b9392505050565b600080608083901c15612b2257608092831c92015b604083901c15612b3457604092831c92015b602083901c15612b4657602092831c92015b601083901c15612b5857601092831c92015b600883901c15612b6a57600892831c92015b600483901c15612b7c57600492831c92015b600283901c15612b8e57600292831c92015b600183901c15612b9c576001015b92915050565b6000818310612bb15781612b06565b5090919050565b6001600160a01b0381168114612bcd57600080fd5b50565b60008060408385031215612be357600080fd5b8235612bee81612bb8565b946020939093013593505050565b600060208284031215612c0e57600080fd5b5035919050565b600080600060608486031215612c2a57600080fd5b8335612c3581612bb8565b95602085013595506040909401359392505050565b6fffffffffffffffffffffffffffffffff81168114612bcd57600080fd5b600060408284031215612c7a57600080fd5b6040516040810181811067ffffffffffffffff82111715612cc4577f4e487b7100000000000000000000000000000000000000000000000000000000600052604160045260246000fd5b6040529050808235612cd581612c4a565b81526020830135612ce581612c4a565b6020919091015292915050565b6000806000806000806000610120888a031215612d0e57600080fd5b8735612d1981612bb8565b96506020880135612d2981612bb8565b95506040880135612d3981612bb8565b94506060880135935060808801359250612d568960a08a01612c68565b9150612d658960e08a01612c68565b905092959891949750929550565b7f4e487b7100000000000000000000000000000000000000000000000000000000600052601160045260246000fd5b81810381811115612b9c57612b9c612d73565b80820180821115612b9c57612b9c612d73565b600060208284031215612dda57600080fd5b81518015158114612b0657600080fd5b600060208284031215612dfc57600080fd5b5051919050565b8082028115828204841417612b9c57612b9c612d73565b7f4e487b7100000000000000000000000000000000000000000000000000000000600052601260045260246000fd5b600082612e7f577f4e487b7100000000000000000000000000000000000000000000000000000000600052601260045260246000fd5b500490565b600060208284031215612e9657600080fd5b8151612b0681612bb8565b81516001600160a01b0316815261016081016020830151612ecd60208401826001600160a01b03169052565b506040830151612ee4604084018262ffffff169052565b506060830151612ef9606084018260020b9052565b506080830151612f0e608084018260020b9052565b5060a083015160a083015260c083015160c083015260e083015160e083015261010080840151818401525061012080840151612f54828501826001600160a01b03169052565b505061014092830151919092015290565b60008060008060808587031215612f7b57600080fd5b845193506020850151612f8d81612c4a565b604086015160609096015194979096509250505056fea164736f6c6343000814000a","linkReferences":{}},"methodIdentifiers":{"FRACTION_DENOMINATOR()":"5d643493","MAX_BUY_FEE()":"6e628f3b","MAX_SELL_FEE()":"867508ad","MIN_BUY()":"3af96b90","UNISWAP_V3_NFT_MANAGER()":"c0127c3d","buyExactEth(address,uint256)":"ccebd4ec","buyExactTokens(address,uint256)":"13aea39e","curve()":"7165485d","curveParameters()":"9a97fd9b","ethPaid()":"e71bfbeb","feeParameters()":"98c7adf3","feeReceiver()":"b3f00674","gaugeActive()":"a82f6de5","gaugeClosable()":"833b3fd1","getCurrentPrice()":"eb91d37e","getGaugeStatistics()":"83a9129f","initialize(address,address,address,uint256,uint256,(uint128,uint128),(uint128,uint128))":"d47919d1","launchPool()":"a1d4958c","lpReceiver()":"1f0c57fc","pool()":"16f0115b","quoteBuyExactEth(uint256)":"73d796b2","quoteBuyExactTokens(uint256)":"af769545","quoteSellExactEth(uint256)":"ff20edb0","quoteSellExactTokens(uint256)":"366ad250","sellExactEth(address,uint256,uint256)":"bb9ae51a","sellExactTokens(address,uint256,uint256)":"5e7195ea","token()":"fc0c546a","tokenPurchased()":"b99f6073","tokenTarget()":"782e1e6c","totalSupply()":"18160ddd","weth()":"3fc8cef3"},"id":65}