{
  "abi": [
    {
      "type": "constructor",
      "inputs": [],
      "stateMutability": "nonpayable"
    },
    {
      "type": "function",
      "name": "DOMAIN_SEPARATOR",
      "inputs": [],
      "outputs": [
        {
          "name": "",
          "type": "bytes32",
          "internalType": "bytes32"
        }
      ],
      "stateMutability": "view"
    },
    {
      "type": "function",
      "name": "allowance",
      "inputs": [
        {
          "name": "owner",
          "type": "address",
          "internalType": "address"
        },
        {
          "name": "spender",
          "type": "address",
          "internalType": "address"
        }
      ],
      "outputs": [
        {
          "name": "",
          "type": "uint256",
          "internalType": "uint256"
        }
      ],
      "stateMutability": "view"
    },
    {
      "type": "function",
      "name": "approve",
      "inputs": [
        {
          "name": "spender",
          "type": "address",
          "internalType": "address"
        },
        {
          "name": "value",
          "type": "uint256",
          "internalType": "uint256"
        }
      ],
      "outputs": [
        {
          "name": "",
          "type": "bool",
          "internalType": "bool"
        }
      ],
      "stateMutability": "nonpayable"
    },
    {
      "type": "function",
      "name": "balanceOf",
      "inputs": [
        {
          "name": "account",
          "type": "address",
          "internalType": "address"
        }
      ],
      "outputs": [
        {
          "name": "",
          "type": "uint256",
          "internalType": "uint256"
        }
      ],
      "stateMutability": "view"
    },
    {
      "type": "function",
      "name": "decimals",
      "inputs": [],
      "outputs": [
        {
          "name": "",
          "type": "uint8",
          "internalType": "uint8"
        }
      ],
      "stateMutability": "view"
    },
    {
      "type": "function",
      "name": "description",
      "inputs": [],
      "outputs": [
        {
          "name": "",
          "type": "string",
          "internalType": "string"
        }
      ],
      "stateMutability": "view"
    },
    {
      "type": "function",
      "name": "eip712Domain",
      "inputs": [],
      "outputs": [
        {
          "name": "fields",
          "type": "bytes1",
          "internalType": "bytes1"
        },
        {
          "name": "name",
          "type": "string",
          "internalType": "string"
        },
        {
          "name": "version",
          "type": "string",
          "internalType": "string"
        },
        {
          "name": "chainId",
          "type": "uint256",
          "internalType": "uint256"
        },
        {
          "name": "verifyingContract",
          "type": "address",
          "internalType": "address"
        },
        {
          "name": "salt",
          "type": "bytes32",
          "internalType": "bytes32"
        },
        {
          "name": "extensions",
          "type": "uint256[]",
          "internalType": "uint256[]"
        }
      ],
      "stateMutability": "view"
    },
    {
      "type": "function",
      "name": "gauge",
      "inputs": [],
      "outputs": [
        {
          "name": "",
          "type": "address",
          "internalType": "contract Gauge"
        }
      ],
      "stateMutability": "view"
    },
    {
      "type": "function",
      "name": "getAllMetadata",
      "inputs": [],
      "outputs": [
        {
          "name": "",
          "type": "tuple",
          "internalType": "struct LaunchpadToken.TokenMetadataConfig",
          "components": [
            {
              "name": "ipfsHash",
              "type": "string",
              "internalType": "string"
            },
            {
              "name": "website",
              "type": "string",
              "internalType": "string"
            },
            {
              "name": "twitter",
              "type": "string",
              "internalType": "string"
            },
            {
              "name": "telegram",
              "type": "string",
              "internalType": "string"
            },
            {
              "name": "description",
              "type": "string",
              "internalType": "string"
            },
            {
              "name": "metadata",
              "type": "string",
              "internalType": "string"
            }
          ]
        }
      ],
      "stateMutability": "view"
    },
    {
      "type": "function",
      "name": "initialize",
      "inputs": [
        {
          "name": "_tokenConfig",
          "type": "tuple",
          "internalType": "struct LaunchpadToken.TokenConfig",
          "components": [
            {
              "name": "name",
              "type": "string",
              "internalType": "string"
            },
            {
              "name": "symbol",
              "type": "string",
              "internalType": "string"
            },
            {
              "name": "initialSupply",
              "type": "uint256",
              "internalType": "uint256"
            }
          ]
        },
        {
          "name": "_metadataConfig",
          "type": "tuple",
          "internalType": "struct LaunchpadToken.TokenMetadataConfig",
          "components": [
            {
              "name": "ipfsHash",
              "type": "string",
              "internalType": "string"
            },
            {
              "name": "website",
              "type": "string",
              "internalType": "string"
            },
            {
              "name": "twitter",
              "type": "string",
              "internalType": "string"
            },
            {
              "name": "telegram",
              "type": "string",
              "internalType": "string"
            },
            {
              "name": "description",
              "type": "string",
              "internalType": "string"
            },
            {
              "name": "metadata",
              "type": "string",
              "internalType": "string"
            }
          ]
        },
        {
          "name": "_gauge",
          "type": "address",
          "internalType": "address"
        }
      ],
      "outputs": [],
      "stateMutability": "nonpayable"
    },
    {
      "type": "function",
      "name": "ipfsHash",
      "inputs": [],
      "outputs": [
        {
          "name": "",
          "type": "string",
          "internalType": "string"
        }
      ],
      "stateMutability": "view"
    },
    {
      "type": "function",
      "name": "metadata",
      "inputs": [],
      "outputs": [
        {
          "name": "",
          "type": "string",
          "internalType": "string"
        }
      ],
      "stateMutability": "view"
    },
    {
      "type": "function",
      "name": "name",
      "inputs": [],
      "outputs": [
        {
          "name": "",
          "type": "string",
          "internalType": "string"
        }
      ],
      "stateMutability": "view"
    },
    {
      "type": "function",
      "name": "nonces",
      "inputs": [
        {
          "name": "owner",
          "type": "address",
          "internalType": "address"
        }
      ],
      "outputs": [
        {
          "name": "",
          "type": "uint256",
          "internalType": "uint256"
        }
      ],
      "stateMutability": "view"
    },
    {
      "type": "function",
      "name": "permit",
      "inputs": [
        {
          "name": "owner",
          "type": "address",
          "internalType": "address"
        },
        {
          "name": "spender",
          "type": "address",
          "internalType": "address"
        },
        {
          "name": "value",
          "type": "uint256",
          "internalType": "uint256"
        },
        {
          "name": "deadline",
          "type": "uint256",
          "internalType": "uint256"
        },
        {
          "name": "v",
          "type": "uint8",
          "internalType": "uint8"
        },
        {
          "name": "r",
          "type": "bytes32",
          "internalType": "bytes32"
        },
        {
          "name": "s",
          "type": "bytes32",
          "internalType": "bytes32"
        }
      ],
      "outputs": [],
      "stateMutability": "nonpayable"
    },
    {
      "type": "function",
      "name": "router",
      "inputs": [],
      "outputs": [
        {
          "name": "",
          "type": "address",
          "internalType": "address"
        }
      ],
      "stateMutability": "view"
    },
    {
      "type": "function",
      "name": "symbol",
      "inputs": [],
      "outputs": [
        {
          "name": "",
          "type": "string",
          "internalType": "string"
        }
      ],
      "stateMutability": "view"
    },
    {
      "type": "function",
      "name": "telegram",
      "inputs": [],
      "outputs": [
        {
          "name": "",
          "type": "string",
          "internalType": "string"
        }
      ],
      "stateMutability": "view"
    },
    {
      "type": "function",
      "name": "totalSupply",
      "inputs": [],
      "outputs": [
        {
          "name": "",
          "type": "uint256",
          "internalType": "uint256"
        }
      ],
      "stateMutability": "view"
    },
    {
      "type": "function",
      "name": "transfer",
      "inputs": [
        {
          "name": "recipient",
          "type": "address",
          "internalType": "address"
        },
        {
          "name": "amount",
          "type": "uint256",
          "internalType": "uint256"
        }
      ],
      "outputs": [
        {
          "name": "",
          "type": "bool",
          "internalType": "bool"
        }
      ],
      "stateMutability": "nonpayable"
    },
    {
      "type": "function",
      "name": "transferFrom",
      "inputs": [
        {
          "name": "sender",
          "type": "address",
          "internalType": "address"
        },
        {
          "name": "recipient",
          "type": "address",
          "internalType": "address"
        },
        {
          "name": "amount",
          "type": "uint256",
          "internalType": "uint256"
        }
      ],
      "outputs": [
        {
          "name": "",
          "type": "bool",
          "internalType": "bool"
        }
      ],
      "stateMutability": "nonpayable"
    },
    {
      "type": "function",
      "name": "twitter",
      "inputs": [],
      "outputs": [
        {
          "name": "",
          "type": "string",
          "internalType": "string"
        }
      ],
      "stateMutability": "view"
    },
    {
      "type": "function",
      "name": "website",
      "inputs": [],
      "outputs": [
        {
          "name": "",
          "type": "string",
          "internalType": "string"
        }
      ],
      "stateMutability": "view"
    },
    {
      "type": "event",
      "name": "Approval",
      "inputs": [
        {
          "name": "owner",
          "type": "address",
          "indexed": true,
          "internalType": "address"
        },
        {
          "name": "spender",
          "type": "address",
          "indexed": true,
          "internalType": "address"
        },
        {
          "name": "value",
          "type": "uint256",
          "indexed": false,
          "internalType": "uint256"
        }
      ],
      "anonymous": false
    },
    {
      "type": "event",
      "name": "EIP712DomainChanged",
      "inputs": [],
      "anonymous": false
    },
    {
      "type": "event",
      "name": "Initialized",
      "inputs": [
        {
          "name": "version",
          "type": "uint64",
          "indexed": false,
          "internalType": "uint64"
        }
      ],
      "anonymous": false
    },
    {
      "type": "event",
      "name": "Transfer",
      "inputs": [
        {
          "name": "from",
          "type": "address",
          "indexed": true,
          "internalType": "address"
        },
        {
          "name": "to",
          "type": "address",
          "indexed": true,
          "internalType": "address"
        },
        {
          "name": "value",
          "type": "uint256",
          "indexed": false,
          "internalType": "uint256"
        }
      ],
      "anonymous": false
    },
    {
      "type": "error",
      "name": "ECDSAInvalidSignature",
      "inputs": []
    },
    {
      "type": "error",
      "name": "ECDSAInvalidSignatureLength",
      "inputs": [
        {
          "name": "length",
          "type": "uint256",
          "internalType": "uint256"
        }
      ]
    },
    {
      "type": "error",
      "name": "ECDSAInvalidSignatureS",
      "inputs": [
        {
          "name": "s",
          "type": "bytes32",
          "internalType": "bytes32"
        }
      ]
    },
    {
      "type": "error",
      "name": "ERC20InsufficientAllowance",
      "inputs": [
        {
          "name": "spender",
          "type": "address",
          "internalType": "address"
        },
        {
          "name": "allowance",
          "type": "uint256",
          "internalType": "uint256"
        },
        {
          "name": "needed",
          "type": "uint256",
          "internalType": "uint256"
        }
      ]
    },
    {
      "type": "error",
      "name": "ERC20InsufficientBalance",
      "inputs": [
        {
          "name": "sender",
          "type": "address",
          "internalType": "address"
        },
        {
          "name": "balance",
          "type": "uint256",
          "internalType": "uint256"
        },
        {
          "name": "needed",
          "type": "uint256",
          "internalType": "uint256"
        }
      ]
    },
    {
      "type": "error",
      "name": "ERC20InvalidApprover",
      "inputs": [
        {
          "name": "approver",
          "type": "address",
          "internalType": "address"
        }
      ]
    },
    {
      "type": "error",
      "name": "ERC20InvalidReceiver",
      "inputs": [
        {
          "name": "receiver",
          "type": "address",
          "internalType": "address"
        }
      ]
    },
    {
      "type": "error",
      "name": "ERC20InvalidSender",
      "inputs": [
        {
          "name": "sender",
          "type": "address",
          "internalType": "address"
        }
      ]
    },
    {
      "type": "error",
      "name": "ERC20InvalidSpender",
      "inputs": [
        {
          "name": "spender",
          "type": "address",
          "internalType": "address"
        }
      ]
    },
    {
      "type": "error",
      "name": "ERC2612ExpiredSignature",
      "inputs": [
        {
          "name": "deadline",
          "type": "uint256",
          "internalType": "uint256"
        }
      ]
    },
    {
      "type": "error",
      "name": "ERC2612InvalidSigner",
      "inputs": [
        {
          "name": "signer",
          "type": "address",
          "internalType": "address"
        },
        {
          "name": "owner",
          "type": "address",
          "internalType": "address"
        }
      ]
    },
    {
      "type": "error",
      "name": "InvalidAccountNonce",
      "inputs": [
        {
          "name": "account",
          "type": "address",
          "internalType": "address"
        },
        {
          "name": "currentNonce",
          "type": "uint256",
          "internalType": "uint256"
        }
      ]
    },
    {
      "type": "error",
      "name": "InvalidInitialization",
      "inputs": []
    },
    {
      "type": "error",
      "name": "LaunchpadToken__TransferForbidden",
      "inputs": []
    },
    {
      "type": "error",
      "name": "LaunchpadToken__ZeroAddress",
      "inputs": []
    },
    {
      "type": "error",
      "name": "NotInitializing",
      "inputs": []
    }
  ],
  "bytecode": {
    "object": "0x60806040523480156200001157600080fd5b506200001c62000022565b620000d6565b7ff0c57e16840df040f15088dc2f81fe391c3923bec73e23a9662efc9c229c6a00805468010000000000000000900460ff1615620000735760405163f92ee8a960e01b815260040160405180910390fd5b80546001600160401b0390811614620000d35780546001600160401b0319166001600160401b0390811782556040519081527fc7f505b2f371ae2175ee4913f4499e1f2633a7b5936321eed1cdaeb6115181d29060200160405180910390a15b50565b6125ac80620000e66000396000f3fe608060405234801561001057600080fd5b506004361061018d5760003560e01c806384b0196e116100e3578063beb0a4161161008c578063d9a1963511610066578063d9a1963514610327578063dd62ed3e1461033c578063f887ea40146103a157600080fd5b8063beb0a41614610304578063c623674f1461030c578063d505accf1461031457600080fd5b8063a9059cbb116100bd578063a9059cbb146102d4578063abfaeee0146102e7578063b632858e146102ef57600080fd5b806384b0196e1461026c57806395d89b4114610287578063a6f19c841461028f57600080fd5b80633644e5151161014557806370a082311161011f57806370a082311461023e5780637284e416146102515780637ecebe001461025957600080fd5b80633644e51514610226578063392f37e91461022e57806347ecb6651461023657600080fd5b806318160ddd1161017657806318160ddd146101d357806323b872dd14610204578063313ce5671461021757600080fd5b806306fdde0314610192578063095ea7b3146101b0575b600080fd5b61019a6103c1565b6040516101a79190611d66565b60405180910390f35b6101c36101be366004611da2565b61047c565b60405190151581526020016101a7565b7f52c63247e1f47db19d5ce0460030c497f067ca4cebf71ba98eeadabe20bace02545b6040519081526020016101a7565b6101c3610212366004611dcc565b610496565b604051601281526020016101a7565b6101f66105b7565b61019a6105c6565b61019a610654565b6101f661024c366004611e08565b610661565b61019a6106b3565b6101f6610267366004611e08565b6106c0565b6102746106cb565b6040516101a79796959493929190611e23565b61019a6107cc565b6000546102af9073ffffffffffffffffffffffffffffffffffffffff1681565b60405173ffffffffffffffffffffffffffffffffffffffff90911681526020016101a7565b6101c36102e2366004611da2565b61081d565b61019a61093c565b6103026102fd36600461210b565b610949565b005b61019a610bf7565b61019a610c04565b6103026103223660046121dd565b610c11565b61032f610ddd565b6040516101a79190612250565b6101f661034a366004612326565b73ffffffffffffffffffffffffffffffffffffffff91821660009081527f52c63247e1f47db19d5ce0460030c497f067ca4cebf71ba98eeadabe20bace016020908152604080832093909416825291909152205490565b6001546102af9073ffffffffffffffffffffffffffffffffffffffff1681565b606060007f52c63247e1f47db19d5ce0460030c497f067ca4cebf71ba98eeadabe20bace005b90508060030180546103f890612359565b80601f016020809104026020016040519081016040528092919081815260200182805461042490612359565b80156104715780601f1061044657610100808354040283529160200191610471565b820191906000526020600020905b81548152906001019060200180831161045457829003601f168201915b505050505091505090565b60003361048a818585611184565b60019150505b92915050565b60008060009054906101000a900473ffffffffffffffffffffffffffffffffffffffff1673ffffffffffffffffffffffffffffffffffffffff1663a82f6de56040518163ffffffff1660e01b8152600401602060405180830381865afa158015610504573d6000803e3d6000fd5b505050506040513d601f19601f8201168201806040525081019061052891906123ac565b156105a45760005473ffffffffffffffffffffffffffffffffffffffff16331480159061056d575060015473ffffffffffffffffffffffffffffffffffffffff163314155b156105a4576040517f1c1363f600000000000000000000000000000000000000000000000000000000815260040160405180910390fd5b6105af848484611196565b949350505050565b60006105c16111ba565b905090565b600780546105d390612359565b80601f01602080910402602001604051908101604052809291908181526020018280546105ff90612359565b801561064c5780601f106106215761010080835404028352916020019161064c565b820191906000526020600020905b81548152906001019060200180831161062f57829003601f168201915b505050505081565b600580546105d390612359565b6000807f52c63247e1f47db19d5ce0460030c497f067ca4cebf71ba98eeadabe20bace005b73ffffffffffffffffffffffffffffffffffffffff90931660009081526020939093525050604090205490565b600680546105d390612359565b6000610490826111c4565b600060608082808083817fa16a46d94261c7517cc8ff89f61c0ce93598e3c849801011dee649a6a557d100805490915015801561070a57506001810154155b610775576040517f08c379a000000000000000000000000000000000000000000000000000000000815260206004820152601560248201527f4549503731323a20556e696e697469616c697a6564000000000000000000000060448201526064015b60405180910390fd5b61077d6111ed565b61078561123e565b604080516000808252602082019092527f0f000000000000000000000000000000000000000000000000000000000000009c939b5091995046985030975095509350915050565b7f52c63247e1f47db19d5ce0460030c497f067ca4cebf71ba98eeadabe20bace0480546060917f52c63247e1f47db19d5ce0460030c497f067ca4cebf71ba98eeadabe20bace00916103f890612359565b60008060009054906101000a900473ffffffffffffffffffffffffffffffffffffffff1673ffffffffffffffffffffffffffffffffffffffff1663a82f6de56040518163ffffffff1660e01b8152600401602060405180830381865afa15801561088b573d6000803e3d6000fd5b505050506040513d601f19601f820116820180604052508101906108af91906123ac565b1561092b5760005473ffffffffffffffffffffffffffffffffffffffff1633148015906108f4575060015473ffffffffffffffffffffffffffffffffffffffff163314155b1561092b576040517f1c1363f600000000000000000000000000000000000000000000000000000000815260040160405180910390fd5b6109358383611268565b9392505050565b600480546105d390612359565b7ff0c57e16840df040f15088dc2f81fe391c3923bec73e23a9662efc9c229c6a00805468010000000000000000810460ff16159067ffffffffffffffff166000811580156109945750825b905060008267ffffffffffffffff1660011480156109b15750303b155b9050811580156109bf575080155b156109f6576040517ff92ee8a900000000000000000000000000000000000000000000000000000000815260040160405180910390fd5b84547fffffffffffffffffffffffffffffffffffffffffffffffff00000000000000001660011785558315610a575784547fffffffffffffffffffffffffffffffffffffffffffffff00ffffffffffffffff16680100000000000000001785555b610a6988600001518960200151611276565b8751610a749061128c565b73ffffffffffffffffffffffffffffffffffffffff8616610ac1576040517f9f4df33200000000000000000000000000000000000000000000000000000000815260040160405180910390fd5b6000805473ffffffffffffffffffffffffffffffffffffffff88167fffffffffffffffffffffffff00000000000000000000000000000000000000009182161790915560018054909116331790558651600290610b1e908261241c565b506020870151600390610b31908261241c565b506040870151600490610b44908261241c565b506060870151600590610b57908261241c565b506080870151600690610b6a908261241c565b5060a0870151600790610b7d908261241c565b50610b8c3389604001516112d6565b8315610bed5784547fffffffffffffffffffffffffffffffffffffffffffffff00ffffffffffffffff168555604051600181527fc7f505b2f371ae2175ee4913f4499e1f2633a7b5936321eed1cdaeb6115181d29060200160405180910390a15b5050505050505050565b600380546105d390612359565b600280546105d390612359565b83421115610c4e576040517f627913020000000000000000000000000000000000000000000000000000000081526004810185905260240161076c565b60007f6e71edae12b1b97f4d1f60370fef10105fa2faae0126114a169c64845d6126c9888888610cc78c73ffffffffffffffffffffffffffffffffffffffff1660009081527f5ab42ced628888259c08ac98db1eb0cf702fc1501344311d8b100cd1bfe4bb006020526040902080546001810190915590565b60408051602081019690965273ffffffffffffffffffffffffffffffffffffffff94851690860152929091166060840152608083015260a082015260c0810186905260e0016040516020818303038152906040528051906020012090506000610d2f82611332565b90506000610d3f8287878761137a565b90508973ffffffffffffffffffffffffffffffffffffffff168173ffffffffffffffffffffffffffffffffffffffff1614610dc6576040517f4b800e4600000000000000000000000000000000000000000000000000000000815273ffffffffffffffffffffffffffffffffffffffff80831660048301528b16602482015260440161076c565b610dd18a8a8a611184565b50505050505050505050565b610e166040518060c001604052806060815260200160608152602001606081526020016060815260200160608152602001606081525090565b6040518060c0016040528060028054610e2e90612359565b80601f0160208091040260200160405190810160405280929190818152602001828054610e5a90612359565b8015610ea75780601f10610e7c57610100808354040283529160200191610ea7565b820191906000526020600020905b815481529060010190602001808311610e8a57829003601f168201915b5050505050815260200160038054610ebe90612359565b80601f0160208091040260200160405190810160405280929190818152602001828054610eea90612359565b8015610f375780601f10610f0c57610100808354040283529160200191610f37565b820191906000526020600020905b815481529060010190602001808311610f1a57829003601f168201915b5050505050815260200160048054610f4e90612359565b80601f0160208091040260200160405190810160405280929190818152602001828054610f7a90612359565b8015610fc75780601f10610f9c57610100808354040283529160200191610fc7565b820191906000526020600020905b815481529060010190602001808311610faa57829003601f168201915b5050505050815260200160058054610fde90612359565b80601f016020809104026020016040519081016040528092919081815260200182805461100a90612359565b80156110575780601f1061102c57610100808354040283529160200191611057565b820191906000526020600020905b81548152906001019060200180831161103a57829003601f168201915b505050505081526020016006805461106e90612359565b80601f016020809104026020016040519081016040528092919081815260200182805461109a90612359565b80156110e75780601f106110bc576101008083540402835291602001916110e7565b820191906000526020600020905b8154815290600101906020018083116110ca57829003601f168201915b50505050508152602001600780546110fe90612359565b80601f016020809104026020016040519081016040528092919081815260200182805461112a90612359565b80156111775780601f1061114c57610100808354040283529160200191611177565b820191906000526020600020905b81548152906001019060200180831161115a57829003601f168201915b5050505050815250905090565b61119183838360016113a8565b505050565b6000336111a4858285611515565b6111af858585611603565b506001949350505050565b60006105c16116ae565b6000807f5ab42ced628888259c08ac98db1eb0cf702fc1501344311d8b100cd1bfe4bb00610686565b7fa16a46d94261c7517cc8ff89f61c0ce93598e3c849801011dee649a6a557d10280546060917fa16a46d94261c7517cc8ff89f61c0ce93598e3c849801011dee649a6a557d100916103f890612359565b606060007fa16a46d94261c7517cc8ff89f61c0ce93598e3c849801011dee649a6a557d1006103e7565b60003361048a818585611603565b61127e611722565b611288828261178b565b5050565b611294611722565b6112d3816040518060400160405280600181526020017f31000000000000000000000000000000000000000000000000000000000000008152506117ee565b50565b73ffffffffffffffffffffffffffffffffffffffff8216611326576040517fec442f050000000000000000000000000000000000000000000000000000000081526000600482015260240161076c565b61128860008383611861565b600061049061133f6111ba565b836040517f19010000000000000000000000000000000000000000000000000000000000008152600281019290925260228201526042902090565b60008060008061138c88888888611a32565b92509250925061139c8282611b2c565b50909695505050505050565b7f52c63247e1f47db19d5ce0460030c497f067ca4cebf71ba98eeadabe20bace0073ffffffffffffffffffffffffffffffffffffffff8516611419576040517fe602df050000000000000000000000000000000000000000000000000000000081526000600482015260240161076c565b73ffffffffffffffffffffffffffffffffffffffff8416611469576040517f94280d620000000000000000000000000000000000000000000000000000000081526000600482015260240161076c565b73ffffffffffffffffffffffffffffffffffffffff80861660009081526001830160209081526040808320938816835292905220839055811561150e578373ffffffffffffffffffffffffffffffffffffffff168573ffffffffffffffffffffffffffffffffffffffff167f8c5be1e5ebec7d5bd14f71427d1e84f3dd0314c0f7b2291e5b200ac8c7c3b9258560405161150591815260200190565b60405180910390a35b5050505050565b73ffffffffffffffffffffffffffffffffffffffff83811660009081527f52c63247e1f47db19d5ce0460030c497f067ca4cebf71ba98eeadabe20bace0160209081526040808320938616835292905220547fffffffffffffffffffffffffffffffffffffffffffffffffffffffffffffffff81146115fd57818110156115ee576040517ffb8f41b200000000000000000000000000000000000000000000000000000000815273ffffffffffffffffffffffffffffffffffffffff84166004820152602481018290526044810183905260640161076c565b6115fd848484840360006113a8565b50505050565b73ffffffffffffffffffffffffffffffffffffffff8316611653576040517f96c6fd1e0000000000000000000000000000000000000000000000000000000081526000600482015260240161076c565b73ffffffffffffffffffffffffffffffffffffffff82166116a3576040517fec442f050000000000000000000000000000000000000000000000000000000081526000600482015260240161076c565b611191838383611861565b60007f8b73c3c69bb8fe3d512ecc4cf759cc79239f7b179b0ffacaa9a75d522b39400f6116d9611c30565b6116e1611cac565b60408051602081019490945283019190915260608201524660808201523060a082015260c00160405160208183030381529060405280519060200120905090565b7ff0c57e16840df040f15088dc2f81fe391c3923bec73e23a9662efc9c229c6a005468010000000000000000900460ff16611789576040517fd7e6bcf800000000000000000000000000000000000000000000000000000000815260040160405180910390fd5b565b611793611722565b7f52c63247e1f47db19d5ce0460030c497f067ca4cebf71ba98eeadabe20bace007f52c63247e1f47db19d5ce0460030c497f067ca4cebf71ba98eeadabe20bace036117df848261241c565b50600481016115fd838261241c565b6117f6611722565b7fa16a46d94261c7517cc8ff89f61c0ce93598e3c849801011dee649a6a557d1007fa16a46d94261c7517cc8ff89f61c0ce93598e3c849801011dee649a6a557d102611842848261241c565b5060038101611851838261241c565b5060008082556001909101555050565b7f52c63247e1f47db19d5ce0460030c497f067ca4cebf71ba98eeadabe20bace0073ffffffffffffffffffffffffffffffffffffffff84166118bc57818160020160008282546118b19190612536565b9091555061196e9050565b73ffffffffffffffffffffffffffffffffffffffff841660009081526020829052604090205482811015611942576040517fe450d38c00000000000000000000000000000000000000000000000000000000815273ffffffffffffffffffffffffffffffffffffffff86166004820152602481018290526044810184905260640161076c565b73ffffffffffffffffffffffffffffffffffffffff851660009081526020839052604090209083900390555b73ffffffffffffffffffffffffffffffffffffffff83166119995760028101805483900390556119c5565b73ffffffffffffffffffffffffffffffffffffffff831660009081526020829052604090208054830190555b8273ffffffffffffffffffffffffffffffffffffffff168473ffffffffffffffffffffffffffffffffffffffff167fddf252ad1be2c89b69c2b068fc378daa952ba7f163c4a11628f55a4df523b3ef84604051611a2491815260200190565b60405180910390a350505050565b600080807f7fffffffffffffffffffffffffffffff5d576e7357a4501ddfe92f46681b20a0841115611a6d5750600091506003905082611b22565b604080516000808252602082018084528a905260ff891692820192909252606081018790526080810186905260019060a0016020604051602081039080840390855afa158015611ac1573d6000803e3d6000fd5b50506040517fffffffffffffffffffffffffffffffffffffffffffffffffffffffffffffffe0015191505073ffffffffffffffffffffffffffffffffffffffff8116611b1857506000925060019150829050611b22565b9250600091508190505b9450945094915050565b6000826003811115611b4057611b40612570565b03611b49575050565b6001826003811115611b5d57611b5d612570565b03611b94576040517ff645eedf00000000000000000000000000000000000000000000000000000000815260040160405180910390fd5b6002826003811115611ba857611ba8612570565b03611be2576040517ffce698f70000000000000000000000000000000000000000000000000000000081526004810182905260240161076c565b6003826003811115611bf657611bf6612570565b03611288576040517fd78bce0c0000000000000000000000000000000000000000000000000000000081526004810182905260240161076c565b60007fa16a46d94261c7517cc8ff89f61c0ce93598e3c849801011dee649a6a557d10081611c5c6111ed565b805190915015611c7457805160209091012092915050565b81548015611c83579392505050565b7fc5d2460186f7233c927e7db2dcc703c0e500b653ca82273b7bfad8045d85a470935050505090565b60007fa16a46d94261c7517cc8ff89f61c0ce93598e3c849801011dee649a6a557d10081611cd861123e565b805190915015611cf057805160209091012092915050565b60018201548015611c83579392505050565b6000815180845260005b81811015611d2857602081850181015186830182015201611d0c565b5060006020828601015260207fffffffffffffffffffffffffffffffffffffffffffffffffffffffffffffffe0601f83011685010191505092915050565b6020815260006109356020830184611d02565b803573ffffffffffffffffffffffffffffffffffffffff81168114611d9d57600080fd5b919050565b60008060408385031215611db557600080fd5b611dbe83611d79565b946020939093013593505050565b600080600060608486031215611de157600080fd5b611dea84611d79565b9250611df860208501611d79565b9150604084013590509250925092565b600060208284031215611e1a57600080fd5b61093582611d79565b7fff00000000000000000000000000000000000000000000000000000000000000881681526000602060e081840152611e5f60e084018a611d02565b8381036040850152611e71818a611d02565b6060850189905273ffffffffffffffffffffffffffffffffffffffff8816608086015260a0850187905284810360c0860152855180825283870192509083019060005b81811015611ed057835183529284019291840191600101611eb4565b50909c9b505050505050505050505050565b7f4e487b7100000000000000000000000000000000000000000000000000000000600052604160045260246000fd5b60405160c0810167ffffffffffffffff81118282101715611f3457611f34611ee2565b60405290565b6040516060810167ffffffffffffffff81118282101715611f3457611f34611ee2565b600082601f830112611f6e57600080fd5b813567ffffffffffffffff80821115611f8957611f89611ee2565b604051601f83017fffffffffffffffffffffffffffffffffffffffffffffffffffffffffffffffe0908116603f01168101908282118183101715611fcf57611fcf611ee2565b81604052838152866020858801011115611fe857600080fd5b836020870160208301376000602085830101528094505050505092915050565b600060c0828403121561201a57600080fd5b612022611f11565b9050813567ffffffffffffffff8082111561203c57600080fd5b61204885838601611f5d565b8352602084013591508082111561205e57600080fd5b61206a85838601611f5d565b6020840152604084013591508082111561208357600080fd5b61208f85838601611f5d565b604084015260608401359150808211156120a857600080fd5b6120b485838601611f5d565b606084015260808401359150808211156120cd57600080fd5b6120d985838601611f5d565b608084015260a08401359150808211156120f257600080fd5b506120ff84828501611f5d565b60a08301525092915050565b60008060006060848603121561212057600080fd5b833567ffffffffffffffff8082111561213857600080fd5b908501906060828803121561214c57600080fd5b612154611f3a565b82358281111561216357600080fd5b61216f89828601611f5d565b82525060208301358281111561218457600080fd5b61219089828601611f5d565b602083015250604083013560408201528095505060208601359150808211156121b857600080fd5b506121c586828701612008565b9250506121d460408501611d79565b90509250925092565b600080600080600080600060e0888a0312156121f857600080fd5b61220188611d79565b965061220f60208901611d79565b95506040880135945060608801359350608088013560ff8116811461223357600080fd5b9699959850939692959460a0840135945060c09093013592915050565b602081526000825160c0602084015261226c60e0840182611d02565b905060208401517fffffffffffffffffffffffffffffffffffffffffffffffffffffffffffffffe0808584030160408601526122a88383611d02565b925060408601519150808584030160608601526122c58383611d02565b925060608601519150808584030160808601526122e28383611d02565b925060808601519150808584030160a08601526122ff8383611d02565b925060a08601519150808584030160c08601525061231d8282611d02565b95945050505050565b6000806040838503121561233957600080fd5b61234283611d79565b915061235060208401611d79565b90509250929050565b600181811c9082168061236d57607f821691505b6020821081036123a6577f4e487b7100000000000000000000000000000000000000000000000000000000600052602260045260246000fd5b50919050565b6000602082840312156123be57600080fd5b8151801515811461093557600080fd5b601f82111561119157600081815260208120601f850160051c810160208610156123f55750805b601f850160051c820191505b8181101561241457828155600101612401565b505050505050565b815167ffffffffffffffff81111561243657612436611ee2565b61244a816124448454612359565b846123ce565b602080601f83116001811461249d57600084156124675750858301515b7fffffffffffffffffffffffffffffffffffffffffffffffffffffffffffffffff600386901b1c1916600185901b178555612414565b6000858152602081207fffffffffffffffffffffffffffffffffffffffffffffffffffffffffffffffe08616915b828110156124ea578886015182559484019460019091019084016124cb565b508582101561252657878501517fffffffffffffffffffffffffffffffffffffffffffffffffffffffffffffffff600388901b60f8161c191681555b5050505050600190811b01905550565b80820180821115610490577f4e487b7100000000000000000000000000000000000000000000000000000000600052601160045260246000fd5b7f4e487b7100000000000000000000000000000000000000000000000000000000600052602160045260246000fdfea164736f6c6343000814000a",
    "linkReferences": {}
  },
  "methodIdentifiers": {
    "DOMAIN_SEPARATOR()": "3644e515",
    "allowance(address,address)": "dd62ed3e",
    "approve(address,uint256)": "095ea7b3",
    "balanceOf(address)": "70a08231",
    "decimals()": "313ce567",
    "description()": "7284e416",
    "eip712Domain()": "84b0196e",
    "gauge()": "a6f19c84",
    "getAllMetadata()": "d9a19635",
    "initialize((string,string,uint256),(string,string,string,string,string,string),address)": "b632858e",
    "ipfsHash()": "c623674f",
    "metadata()": "392f37e9",
    "name()": "06fdde03",
    "nonces(address)": "7ecebe00",
    "permit(address,address,uint256,uint256,uint8,bytes32,bytes32)": "d505accf",
    "router()": "f887ea40",
    "symbol()": "95d89b41",
    "telegram()": "47ecb665",
    "totalSupply()": "18160ddd",
    "transfer(address,uint256)": "a9059cbb",
    "transferFrom(address,address,uint256)": "23b872dd",
    "twitter()": "abfaeee0",
    "website()": "beb0a416"
  },
  "id": 67
}