{"abi":[{"type":"constructor","inputs":[{"name":"_tokenImplementation","type":"address","internalType":"address"},{"name":"_gaugeImplementation","type":"address","internalType":"address"},{"name":"_curve","type":"address","internalType":"address"},{"name":"_treasury","type":"address","internalType":"address"},{"name":"_lpReceiver","type":"address","internalType":"address"},{"name":"_creationCost","type":"uint64","internalType":"uint64"},{"name":"_boosterFraction","type":"uint64","internalType":"uint64"}],"stateMutability":"nonpayable"},{"type":"function","name":"FRACTION_DENOMINATOR","inputs":[],"outputs":[{"name":"","type":"uint256","internalType":"uint256"}],"stateMutability":"view"},{"type":"function","name":"MAX_BONDING_FRACTION","inputs":[],"outputs":[{"name":"","type":"uint256","internalType":"uint256"}],"stateMutability":"view"},{"type":"function","name":"MAX_BOOSTER_FRACTION","inputs":[],"outputs":[{"name":"","type":"uint256","internalType":"uint256"}],"stateMutability":"view"},{"type":"function","name":"MAX_CREATION_COST","inputs":[],"outputs":[{"name":"","type":"uint256","internalType":"uint256"}],"stateMutability":"view"},{"type":"function","name":"MAX_GAUGE_FEE","inputs":[],"outputs":[{"name":"","type":"uint256","internalType":"uint256"}],"stateMutability":"view"},{"type":"function","name":"MIN_INITIAL_SUPPLY","inputs":[],"outputs":[{"name":"","type":"uint256","internalType":"uint256"}],"stateMutability":"view"},{"type":"function","name":"bondingCurveFraction","inputs":[],"outputs":[{"name":"","type":"uint64","internalType":"uint64"}],"stateMutability":"view"},{"type":"function","name":"boosterFraction","inputs":[],"outputs":[{"name":"","type":"uint64","internalType":"uint64"}],"stateMutability":"view"},{"type":"function","name":"buyExactEth","inputs":[{"name":"token","type":"address","internalType":"address"},{"name":"minAmountOut","type":"uint256","internalType":"uint256"}],"outputs":[],"stateMutability":"payable"},{"type":"function","name":"buyExactTokens","inputs":[{"name":"token","type":"address","internalType":"address"},{"name":"amountOut","type":"uint256","internalType":"uint256"}],"outputs":[],"stateMutability":"payable"},{"type":"function","name":"createLaunchpadToken","inputs":[{"name":"tokenConfig","type":"tuple","internalType":"struct LaunchpadToken.TokenConfig","components":[{"name":"name","type":"string","internalType":"string"},{"name":"symbol","type":"string","internalType":"string"},{"name":"initialSupply","type":"uint256","internalType":"uint256"}]},{"name":"metadataConfig","type":"tuple","internalType":"struct LaunchpadToken.TokenMetadataConfig","components":[{"name":"ipfsHash","type":"string","internalType":"string"},{"name":"website","type":"string","internalType":"string"},{"name":"twitter","type":"string","internalType":"string"},{"name":"telegram","type":"string","internalType":"string"},{"name":"description","type":"string","internalType":"string"},{"name":"metadata","type":"string","internalType":"string"}]},{"name":"snipeConfig","type":"tuple","internalType":"struct Launchpad.AutoSnipeConfig","components":[{"name":"minAmountOut","type":"uint256","internalType":"uint256"}]},{"name":"curveParameters","type":"tuple","internalType":"struct Gauge.CurveParameters","components":[{"name":"yMin","type":"uint128","internalType":"uint128"},{"name":"yMax","type":"uint128","internalType":"uint128"}]}],"outputs":[{"name":"","type":"address","internalType":"contract LaunchpadToken"},{"name":"","type":"address","internalType":"contract Gauge"}],"stateMutability":"payable"},{"type":"function","name":"creationCost","inputs":[],"outputs":[{"name":"","type":"uint64","internalType":"uint64"}],"stateMutability":"view"},{"type":"function","name":"curve","inputs":[],"outputs":[{"name":"","type":"address","internalType":"address"}],"stateMutability":"view"},{"type":"function","name":"gaugeFees","inputs":[],"outputs":[{"name":"buyFee","type":"uint128","internalType":"uint128"},{"name":"sellFee","type":"uint128","internalType":"uint128"}],"stateMutability":"view"},{"type":"function","name":"gaugeImplementation","inputs":[],"outputs":[{"name":"","type":"address","internalType":"address"}],"stateMutability":"view"},{"type":"function","name":"getAllTokens","inputs":[],"outputs":[{"name":"","type":"address[]","internalType":"address[]"}],"stateMutability":"view"},{"type":"function","name":"getAllTokensAndGauges","inputs":[],"outputs":[{"name":"","type":"address[]","internalType":"address[]"},{"name":"","type":"address[]","internalType":"address[]"}],"stateMutability":"view"},{"type":"function","name":"getAllTokensInfo","inputs":[],"outputs":[{"name":"","type":"tuple[]","internalType":"struct Launchpad.TokenInfo[]","components":[{"name":"token","type":"address","internalType":"address"},{"name":"gauge","type":"address","internalType":"address"},{"name":"name","type":"string","internalType":"string"},{"name":"symbol","type":"string","internalType":"string"},{"name":"gaugeActive","type":"bool","internalType":"bool"},{"name":"gaugeClosable","type":"bool","internalType":"bool"},{"name":"tokenPurchased","type":"uint256","internalType":"uint256"},{"name":"tokenTarget","type":"uint256","internalType":"uint256"},{"name":"totalSupply","type":"uint256","internalType":"uint256"},{"name":"currentPrice","type":"uint256","internalType":"uint256"},{"name":"ethPaid","type":"uint256","internalType":"uint256"},{"name":"buyFee","type":"uint128","internalType":"uint128"},{"name":"sellFee","type":"uint128","internalType":"uint128"},{"name":"metadata","type":"tuple","internalType":"struct LaunchpadToken.TokenMetadataConfig","components":[{"name":"ipfsHash","type":"string","internalType":"string"},{"name":"website","type":"string","internalType":"string"},{"name":"twitter","type":"string","internalType":"string"},{"name":"telegram","type":"string","internalType":"string"},{"name":"description","type":"string","internalType":"string"},{"name":"metadata","type":"string","internalType":"string"}]},{"name":"creator","type":"address","internalType":"address"},{"name":"pool","type":"address","internalType":"address"}]}],"stateMutability":"view"},{"type":"function","name":"getMostRecentTokens","inputs":[{"name":"num","type":"uint256","internalType":"uint256"}],"outputs":[{"name":"","type":"address[]","internalType":"address[]"}],"stateMutability":"view"},{"type":"function","name":"getMostRecentTokensAndGauges","inputs":[{"name":"num","type":"uint256","internalType":"uint256"}],"outputs":[{"name":"","type":"address[]","internalType":"address[]"},{"name":"","type":"address[]","internalType":"address[]"}],"stateMutability":"view"},{"type":"function","name":"getMostRecentTokensInfo","inputs":[{"name":"num","type":"uint256","internalType":"uint256"}],"outputs":[{"name":"","type":"tuple[]","internalType":"struct Launchpad.TokenInfo[]","components":[{"name":"token","type":"address","internalType":"address"},{"name":"gauge","type":"address","internalType":"address"},{"name":"name","type":"string","internalType":"string"},{"name":"symbol","type":"string","internalType":"string"},{"name":"gaugeActive","type":"bool","internalType":"bool"},{"name":"gaugeClosable","type":"bool","internalType":"bool"},{"name":"tokenPurchased","type":"uint256","internalType":"uint256"},{"name":"tokenTarget","type":"uint256","internalType":"uint256"},{"name":"totalSupply","type":"uint256","internalType":"uint256"},{"name":"currentPrice","type":"uint256","internalType":"uint256"},{"name":"ethPaid","type":"uint256","internalType":"uint256"},{"name":"buyFee","type":"uint128","internalType":"uint128"},{"name":"sellFee","type":"uint128","internalType":"uint128"},{"name":"metadata","type":"tuple","internalType":"struct LaunchpadToken.TokenMetadataConfig","components":[{"name":"ipfsHash","type":"string","internalType":"string"},{"name":"website","type":"string","internalType":"string"},{"name":"twitter","type":"string","internalType":"string"},{"name":"telegram","type":"string","internalType":"string"},{"name":"description","type":"string","internalType":"string"},{"name":"metadata","type":"string","internalType":"string"}]},{"name":"creator","type":"address","internalType":"address"},{"name":"pool","type":"address","internalType":"address"}]}],"stateMutability":"view"},{"type":"function","name":"getTokenInfo","inputs":[{"name":"token","type":"address","internalType":"address"}],"outputs":[{"name":"","type":"tuple","internalType":"struct Launchpad.TokenInfo","components":[{"name":"token","type":"address","internalType":"address"},{"name":"gauge","type":"address","internalType":"address"},{"name":"name","type":"string","internalType":"string"},{"name":"symbol","type":"string","internalType":"string"},{"name":"gaugeActive","type":"bool","internalType":"bool"},{"name":"gaugeClosable","type":"bool","internalType":"bool"},{"name":"tokenPurchased","type":"uint256","internalType":"uint256"},{"name":"tokenTarget","type":"uint256","internalType":"uint256"},{"name":"totalSupply","type":"uint256","internalType":"uint256"},{"name":"currentPrice","type":"uint256","internalType":"uint256"},{"name":"ethPaid","type":"uint256","internalType":"uint256"},{"name":"buyFee","type":"uint128","internalType":"uint128"},{"name":"sellFee","type":"uint128","internalType":"uint128"},{"name":"metadata","type":"tuple","internalType":"struct LaunchpadToken.TokenMetadataConfig","components":[{"name":"ipfsHash","type":"string","internalType":"string"},{"name":"website","type":"string","internalType":"string"},{"name":"twitter","type":"string","internalType":"string"},{"name":"telegram","type":"string","internalType":"string"},{"name":"description","type":"string","internalType":"string"},{"name":"metadata","type":"string","internalType":"string"}]},{"name":"creator","type":"address","internalType":"address"},{"name":"pool","type":"address","internalType":"address"}]}],"stateMutability":"view"},{"type":"function","name":"getTokens","inputs":[{"name":"start","type":"uint256","internalType":"uint256"},{"name":"end","type":"uint256","internalType":"uint256"}],"outputs":[{"name":"","type":"address[]","internalType":"address[]"}],"stateMutability":"view"},{"type":"function","name":"getTokensAndGauges","inputs":[{"name":"start","type":"uint256","internalType":"uint256"},{"name":"end","type":"uint256","internalType":"uint256"}],"outputs":[{"name":"","type":"address[]","internalType":"address[]"},{"name":"","type":"address[]","internalType":"address[]"}],"stateMutability":"view"},{"type":"function","name":"getTokensAndGaugesByCreator","inputs":[{"name":"creator","type":"address","internalType":"address"}],"outputs":[{"name":"","type":"address[]","internalType":"address[]"},{"name":"","type":"address[]","internalType":"address[]"}],"stateMutability":"view"},{"type":"function","name":"getTokensByCreator","inputs":[{"name":"creator","type":"address","internalType":"address"}],"outputs":[{"name":"","type":"address[]","internalType":"address[]"}],"stateMutability":"view"},{"type":"function","name":"getTokensCount","inputs":[],"outputs":[{"name":"","type":"uint256","internalType":"uint256"}],"stateMutability":"view"},{"type":"function","name":"getTokensCountByCreator","inputs":[{"name":"creator","type":"address","internalType":"address"}],"outputs":[{"name":"","type":"uint256","internalType":"uint256"}],"stateMutability":"view"},{"type":"function","name":"getTokensInfo","inputs":[{"name":"start","type":"uint256","internalType":"uint256"},{"name":"end","type":"uint256","internalType":"uint256"}],"outputs":[{"name":"","type":"tuple[]","internalType":"struct Launchpad.TokenInfo[]","components":[{"name":"token","type":"address","internalType":"address"},{"name":"gauge","type":"address","internalType":"address"},{"name":"name","type":"string","internalType":"string"},{"name":"symbol","type":"string","internalType":"string"},{"name":"gaugeActive","type":"bool","internalType":"bool"},{"name":"gaugeClosable","type":"bool","internalType":"bool"},{"name":"tokenPurchased","type":"uint256","internalType":"uint256"},{"name":"tokenTarget","type":"uint256","internalType":"uint256"},{"name":"totalSupply","type":"uint256","internalType":"uint256"},{"name":"currentPrice","type":"uint256","internalType":"uint256"},{"name":"ethPaid","type":"uint256","internalType":"uint256"},{"name":"buyFee","type":"uint128","internalType":"uint128"},{"name":"sellFee","type":"uint128","internalType":"uint128"},{"name":"metadata","type":"tuple","internalType":"struct LaunchpadToken.TokenMetadataConfig","components":[{"name":"ipfsHash","type":"string","internalType":"string"},{"name":"website","type":"string","internalType":"string"},{"name":"twitter","type":"string","internalType":"string"},{"name":"telegram","type":"string","internalType":"string"},{"name":"description","type":"string","internalType":"string"},{"name":"metadata","type":"string","internalType":"string"}]},{"name":"creator","type":"address","internalType":"address"},{"name":"pool","type":"address","internalType":"address"}]}],"stateMutability":"view"},{"type":"function","name":"getTokensInfoByCreator","inputs":[{"name":"creator","type":"address","internalType":"address"}],"outputs":[{"name":"","type":"tuple[]","internalType":"struct Launchpad.TokenInfo[]","components":[{"name":"token","type":"address","internalType":"address"},{"name":"gauge","type":"address","internalType":"address"},{"name":"name","type":"string","internalType":"string"},{"name":"symbol","type":"string","internalType":"string"},{"name":"gaugeActive","type":"bool","internalType":"bool"},{"name":"gaugeClosable","type":"bool","internalType":"bool"},{"name":"tokenPurchased","type":"uint256","internalType":"uint256"},{"name":"tokenTarget","type":"uint256","internalType":"uint256"},{"name":"totalSupply","type":"uint256","internalType":"uint256"},{"name":"currentPrice","type":"uint256","internalType":"uint256"},{"name":"ethPaid","type":"uint256","internalType":"uint256"},{"name":"buyFee","type":"uint128","internalType":"uint128"},{"name":"sellFee","type":"uint128","internalType":"uint128"},{"name":"metadata","type":"tuple","internalType":"struct LaunchpadToken.TokenMetadataConfig","components":[{"name":"ipfsHash","type":"string","internalType":"string"},{"name":"website","type":"string","internalType":"string"},{"name":"twitter","type":"string","internalType":"string"},{"name":"telegram","type":"string","internalType":"string"},{"name":"description","type":"string","internalType":"string"},{"name":"metadata","type":"string","internalType":"string"}]},{"name":"creator","type":"address","internalType":"address"},{"name":"pool","type":"address","internalType":"address"}]}],"stateMutability":"view"},{"type":"function","name":"lpReceiver","inputs":[],"outputs":[{"name":"","type":"address","internalType":"address"}],"stateMutability":"view"},{"type":"function","name":"owner","inputs":[],"outputs":[{"name":"","type":"address","internalType":"address"}],"stateMutability":"view"},{"type":"function","name":"quote","inputs":[{"name":"token","type":"address","internalType":"address"},{"name":"amount","type":"uint256","internalType":"uint256"},{"name":"quoteType","type":"uint8","internalType":"enum Launchpad.QuoteType"}],"outputs":[{"name":"","type":"tuple","internalType":"struct Launchpad.Quote","components":[{"name":"amountInEth","type":"uint256","internalType":"uint256"},{"name":"amountInToken","type":"uint256","internalType":"uint256"},{"name":"amountOutEth","type":"uint256","internalType":"uint256"},{"name":"amountOutToken","type":"uint256","internalType":"uint256"}]}],"stateMutability":"view"},{"type":"function","name":"quoteBuyExactEth","inputs":[{"name":"token","type":"address","internalType":"address"},{"name":"amount","type":"uint256","internalType":"uint256"}],"outputs":[{"name":"","type":"uint256","internalType":"uint256"},{"name":"","type":"uint256","internalType":"uint256"}],"stateMutability":"view"},{"type":"function","name":"quoteBuyExactTokens","inputs":[{"name":"token","type":"address","internalType":"address"},{"name":"amount","type":"uint256","internalType":"uint256"}],"outputs":[{"name":"","type":"uint256","internalType":"uint256"},{"name":"","type":"uint256","internalType":"uint256"}],"stateMutability":"view"},{"type":"function","name":"quoteSellExactEth","inputs":[{"name":"token","type":"address","internalType":"address"},{"name":"amount","type":"uint256","internalType":"uint256"}],"outputs":[{"name":"","type":"uint256","internalType":"uint256"},{"name":"","type":"uint256","internalType":"uint256"}],"stateMutability":"view"},{"type":"function","name":"quoteSellExactTokens","inputs":[{"name":"token","type":"address","internalType":"address"},{"name":"amount","type":"uint256","internalType":"uint256"}],"outputs":[{"name":"","type":"uint256","internalType":"uint256"},{"name":"","type":"uint256","internalType":"uint256"}],"stateMutability":"view"},{"type":"function","name":"renounceOwnership","inputs":[],"outputs":[],"stateMutability":"nonpayable"},{"type":"function","name":"sellExactEth","inputs":[{"name":"token","type":"address","internalType":"address"},{"name":"amountOut","type":"uint256","internalType":"uint256"},{"name":"maxInput","type":"uint256","internalType":"uint256"}],"outputs":[],"stateMutability":"nonpayable"},{"type":"function","name":"sellExactTokens","inputs":[{"name":"token","type":"address","internalType":"address"},{"name":"amountIn","type":"uint256","internalType":"uint256"},{"name":"minAmountOut","type":"uint256","internalType":"uint256"}],"outputs":[],"stateMutability":"nonpayable"},{"type":"function","name":"setBondingCurveFraction","inputs":[{"name":"_bondingCurveFraction","type":"uint64","internalType":"uint64"}],"outputs":[],"stateMutability":"nonpayable"},{"type":"function","name":"setBoosterFraction","inputs":[{"name":"_boosterFraction","type":"uint64","internalType":"uint64"}],"outputs":[],"stateMutability":"nonpayable"},{"type":"function","name":"setCreationCost","inputs":[{"name":"_creationCost","type":"uint64","internalType":"uint64"}],"outputs":[],"stateMutability":"nonpayable"},{"type":"function","name":"setCurve","inputs":[{"name":"_curve","type":"address","internalType":"address"}],"outputs":[],"stateMutability":"nonpayable"},{"type":"function","name":"setGaugeFees","inputs":[{"name":"_gaugeFees","type":"tuple","internalType":"struct Gauge.FeeParameters","components":[{"name":"buyFee","type":"uint128","internalType":"uint128"},{"name":"sellFee","type":"uint128","internalType":"uint128"}]}],"outputs":[],"stateMutability":"nonpayable"},{"type":"function","name":"setGaugeImplementation","inputs":[{"name":"_gaugeImplementation","type":"address","internalType":"address"}],"outputs":[],"stateMutability":"nonpayable"},{"type":"function","name":"setLpReceiver","inputs":[{"name":"_lpReceiver","type":"address","internalType":"address"}],"outputs":[],"stateMutability":"nonpayable"},{"type":"function","name":"setTokenImplementation","inputs":[{"name":"_tokenImplementation","type":"address","internalType":"address"}],"outputs":[],"stateMutability":"nonpayable"},{"type":"function","name":"setTreasury","inputs":[{"name":"_treasury","type":"address","internalType":"address"}],"outputs":[],"stateMutability":"nonpayable"},{"type":"function","name":"tokenImplementation","inputs":[],"outputs":[{"name":"","type":"address","internalType":"address"}],"stateMutability":"view"},{"type":"function","name":"tokenToCreator","inputs":[{"name":"token","type":"address","internalType":"address"}],"outputs":[{"name":"creator","type":"address","internalType":"address"}],"stateMutability":"view"},{"type":"function","name":"tokenToGauge","inputs":[{"name":"token","type":"address","internalType":"address"}],"outputs":[{"name":"gauge","type":"address","internalType":"address"}],"stateMutability":"view"},{"type":"function","name":"transferOwnership","inputs":[{"name":"newOwner","type":"address","internalType":"address"}],"outputs":[],"stateMutability":"nonpayable"},{"type":"function","name":"treasury","inputs":[],"outputs":[{"name":"","type":"address","internalType":"address"}],"stateMutability":"view"},{"type":"event","name":"BondingCurveFractionSet","inputs":[{"name":"newFraction","type":"uint256","indexed":false,"internalType":"uint256"},{"name":"oldFraction","type":"uint256","indexed":false,"internalType":"uint256"}],"anonymous":false},{"type":"event","name":"BoosterFractionSet","inputs":[{"name":"newFraction","type":"uint256","indexed":false,"internalType":"uint256"},{"name":"oldFraction","type":"uint256","indexed":false,"internalType":"uint256"}],"anonymous":false},{"type":"event","name":"CreationCostSet","inputs":[{"name":"newAmount","type":"uint256","indexed":false,"internalType":"uint256"},{"name":"oldAmount","type":"uint256","indexed":false,"internalType":"uint256"}],"anonymous":false},{"type":"event","name":"CurveSet","inputs":[{"name":"newCurve","type":"address","indexed":true,"internalType":"address"},{"name":"oldCurve","type":"address","indexed":true,"internalType":"address"}],"anonymous":false},{"type":"event","name":"GaugeFeesSet","inputs":[{"name":"newBuyFee","type":"uint256","indexed":false,"internalType":"uint256"},{"name":"oldBuyFee","type":"uint256","indexed":false,"internalType":"uint256"},{"name":"newSellFee","type":"uint256","indexed":false,"internalType":"uint256"},{"name":"oldSellFee","type":"uint256","indexed":false,"internalType":"uint256"}],"anonymous":false},{"type":"event","name":"GaugeImplementationSet","inputs":[{"name":"newImpl","type":"address","indexed":true,"internalType":"address"},{"name":"oldImpl","type":"address","indexed":true,"internalType":"address"}],"anonymous":false},{"type":"event","name":"LpReceiverSet","inputs":[{"name":"newReceiver","type":"address","indexed":true,"internalType":"address"},{"name":"oldReceiver","type":"address","indexed":true,"internalType":"address"}],"anonymous":false},{"type":"event","name":"NewToken","inputs":[{"name":"creator","type":"address","indexed":true,"internalType":"address"},{"name":"token","type":"address","indexed":true,"internalType":"address"},{"name":"gauge","type":"address","indexed":true,"internalType":"address"},{"name":"curve","type":"address","indexed":false,"internalType":"address"}],"anonymous":false},{"type":"event","name":"OwnershipTransferred","inputs":[{"name":"previousOwner","type":"address","indexed":true,"internalType":"address"},{"name":"newOwner","type":"address","indexed":true,"internalType":"address"}],"anonymous":false},{"type":"event","name":"TokenImplementationSet","inputs":[{"name":"newImpl","type":"address","indexed":true,"internalType":"address"},{"name":"oldImpl","type":"address","indexed":true,"internalType":"address"}],"anonymous":false},{"type":"event","name":"TreasurySet","inputs":[{"name":"newTreasury","type":"address","indexed":true,"internalType":"address"},{"name":"oldTreasury","type":"address","indexed":true,"internalType":"address"}],"anonymous":false},{"type":"error","name":"ERC1167FailedCreateClone","inputs":[]},{"type":"error","name":"Launchpad__ExcessiveBondingFraction","inputs":[]},{"type":"error","name":"Launchpad__ExcessiveBoosterFraction","inputs":[]},{"type":"error","name":"Launchpad__ExcessiveCreationCost","inputs":[]},{"type":"error","name":"Launchpad__ExcessiveGaugeFee","inputs":[]},{"type":"error","name":"Launchpad__InsufficientValue","inputs":[]},{"type":"error","name":"Launchpad__InvalidIndex","inputs":[]},{"type":"error","name":"Launchpad__InvalidToken","inputs":[]},{"type":"error","name":"Launchpad__InvalidTotalSupply","inputs":[]},{"type":"error","name":"Launchpad__ZeroAddress","inputs":[]},{"type":"error","name":"OwnableInvalidOwner","inputs":[{"name":"owner","type":"address","internalType":"address"}]},{"type":"error","name":"OwnableUnauthorizedAccount","inputs":[{"name":"account","type":"address","internalType":"address"}]}],"bytecode":{"object":"0x608060405260028054600160a01b600160e01b03191664b1a2bc2ec560b41b1790553480156200002e57600080fd5b506040516200487e3803806200487e83398101604081905262000051916200026e565b33806200007857604051631e4fbdf760e01b81526000600482015260240160405180910390fd5b6200008381620001e9565b506001600160a01b0387161580620000a257506001600160a01b038616155b80620000b557506001600160a01b038516155b80620000c857506001600160a01b038416155b80620000db57506001600160a01b038316155b15620000fa57604051631ea9dcbb60e31b815260040160405180910390fd5b67016345785d8a0000826001600160401b031611156200012d57604051631832006b60e11b815260040160405180910390fd5b66470de4df820000816001600160401b031611156200015f57604051636300d9eb60e11b815260040160405180910390fd5b60018054600280546001600160a01b03199081166001600160a01b039a8b161790915560038054600480548416998c169990991790985560058054909216968a169690961790559587166001600160e01b031995861617600160a01b6001600160401b03948516810291909117909455969095169290931691909117929091160217905562000303565b600080546001600160a01b038381166001600160a01b0319831681178455604051919092169283917f8be0079c531659141344cd1fd0a4f28419497f9722a3daafe3b4186f6b6457e09190a35050565b80516001600160a01b03811681146200025157600080fd5b919050565b80516001600160401b03811681146200025157600080fd5b600080600080600080600060e0888a0312156200028a57600080fd5b620002958862000239565b9650620002a56020890162000239565b9550620002b56040890162000239565b9450620002c56060890162000239565b9350620002d56080890162000239565b9250620002e560a0890162000256565b9150620002f560c0890162000256565b905092959891949750929550565b61456b80620003136000396000f3fe6080604052600436106103555760003560e01c80636e9ec503116101bb578063b3cb2dd5116100f7578063d5c7127511610095578063eda5458a1161006f578063eda5458a14610aaf578063f0f4426014610acf578063f27f801114610aef578063f2fde38b14610b2557600080fd5b8063d5c7127514610a4f578063dc7d24fa14610a6f578063ecc4881714610a8f57600080fd5b8063bd00ba24116100d1578063bd00ba24146109ac578063c9e00d0a146109c9578063ccebd4ec146109e9578063d105005b146109fc57600080fd5b8063b3cb2dd51461094c578063b83dd6001461096c578063bb9ae51a1461098c57600080fd5b80638da5cb5b116101645780639a24a25b1161013e5780639a24a25b146108c4578063a0b72cf7146108d9578063a1aa8fa21461090c578063ad8f34671461092c57600080fd5b80638da5cb5b146108375780638ee069d414610855578063952c9ca21461088b57600080fd5b80637a6c84a3116101955780637a6c84a3146107be578063871010d6146107de57806388282e2a1461081757600080fd5b80636e9ec50314610766578063715018a6146107895780637165485d1461079e57600080fd5b8063333c633d11610295578063494cfc6c116102335780635d6434931161020d5780635d643493146106ea5780635e7195ea146107065780635ff9444a1461072657806361d027b31461074657600080fd5b8063494cfc6c1461068a5780634c861dfe146106aa57806355e6f108146106ca57600080fd5b8063432969ba1161026f578063432969ba1461060a57806345afe70e1461062a57806345d28c901461064a57806348dc9d2b1461066a57600080fd5b8063333c633d146105ba5780633962f82d146105d55780633c82bab7146105ea57600080fd5b80631bc9c86a116103025780631f69565f116102dc5780631f69565f146104ee578063293833ba1461051b5780632a5c792a146105855780632f3a3d5d1461059a57600080fd5b80631bc9c86a1461045c5780631e897526146104895780631f0c57fc146104b657600080fd5b806314e608131161033357806314e60813146103d35780631785b08414610425578063196594f41461044057600080fd5b806303ca52201461035a578063055989721461038957806313aea39e146103be575b600080fd5b34801561036657600080fd5b50610376670d99a8cec7e2000081565b6040519081526020015b60405180910390f35b34801561039557600080fd5b506103a96103a4366004613826565b610b45565b60408051928352602083019190915201610380565b6103d16103cc366004613826565b610d45565b005b3480156103df57600080fd5b5060035461040c9074010000000000000000000000000000000000000000900467ffffffffffffffff1681565b60405167ffffffffffffffff9091168152602001610380565b34801561043157600080fd5b5061037666470de4df82000081565b34801561044c57600080fd5b5061037667016345785d8a000081565b34801561046857600080fd5b5061047c610477366004613852565b610e18565b6040516103809190613ab2565b34801561049557600080fd5b506104a96104a4366004613b32565b610eda565b6040516103809190613b8f565b3480156104c257600080fd5b506005546104d6906001600160a01b031681565b6040516001600160a01b039091168152602001610380565b3480156104fa57600080fd5b5061050e610509366004613852565b610fb1565b6040516103809190613ba2565b34801561052757600080fd5b5060065461055c906fffffffffffffffffffffffffffffffff8082169170010000000000000000000000000000000090041682565b604080516fffffffffffffffffffffffffffffffff938416815292909116602083015201610380565b34801561059157600080fd5b506104a961136d565b3480156105a657600080fd5b506001546104d6906001600160a01b031681565b3480156105c657600080fd5b506103766658d15e1762800081565b3480156105e157600080fd5b5061037661137e565b3480156105f657600080fd5b5061047c610605366004613b32565b61138a565b34801561061657600080fd5b506103a9610625366004613826565b611453565b34801561063657600080fd5b506103d1610645366004613bb5565b61169f565b34801561065657600080fd5b5061047c610665366004613bdf565b6117a6565b34801561067657600080fd5b506103d1610685366004613852565b61185f565b34801561069657600080fd5b506104a96106a5366004613bdf565b61191c565b3480156106b657600080fd5b506103d16106c5366004613c01565b611a21565b3480156106d657600080fd5b506103a96106e5366004613826565b611b72565b3480156106f657600080fd5b50610376670de0b6b3a764000081565b34801561071257600080fd5b506103d1610721366004613c13565b611cd2565b34801561073257600080fd5b506103d1610741366004613bb5565b611e1d565b34801561075257600080fd5b506004546104d6906001600160a01b031681565b34801561077257600080fd5b5061077b611f25565b604051610380929190613c48565b34801561079557600080fd5b506103d161206c565b3480156107aa57600080fd5b506003546104d6906001600160a01b031681565b3480156107ca57600080fd5b506103a96107d9366004613826565b612080565b3480156107ea57600080fd5b5060015461040c9074010000000000000000000000000000000000000000900467ffffffffffffffff1681565b34801561082357600080fd5b506103d1610832366004613852565b612203565b34801561084357600080fd5b506000546001600160a01b03166104d6565b34801561086157600080fd5b506104d6610870366004613852565b6007602052600090815260409020546001600160a01b031681565b34801561089757600080fd5b5060025461040c9074010000000000000000000000000000000000000000900467ffffffffffffffff1681565b3480156108d057600080fd5b5061047c6122c0565b6108ec6108e7366004613f5d565b61237a565b604080516001600160a01b03938416815292909116602083015201610380565b34801561091857600080fd5b5061077b610927366004613bdf565b612711565b34801561093857600080fd5b506103d1610947366004613852565b612806565b34801561095857600080fd5b5061077b610967366004613852565b6128c3565b34801561097857600080fd5b5061077b610987366004613b32565b6129b6565b34801561099857600080fd5b506103d16109a7366004613c13565b612aba565b3480156109b857600080fd5b5061037668056bc75e2d6310000081565b3480156109d557600080fd5b506103766109e4366004613852565b612cac565b6103d16109f7366004613826565b612ccd565b348015610a0857600080fd5b50610a1c610a17366004614042565b612d6d565b60405161038091908151815260208083015190820152604080830151908201526060918201519181019190915260800190565b348015610a5b57600080fd5b506104a9610a6a366004613852565b612ea4565b348015610a7b57600080fd5b506103d1610a8a366004613852565b612ec8565b348015610a9b57600080fd5b506103d1610aaa366004613bb5565b612f85565b348015610abb57600080fd5b506002546104d6906001600160a01b031681565b348015610adb57600080fd5b506103d1610aea366004613852565b61308d565b348015610afb57600080fd5b506104d6610b0a366004613852565b6008602052600090815260409020546001600160a01b031681565b348015610b3157600080fd5b506103d1610b40366004613852565b61314a565b6001600160a01b03808316600090815260076020526040812054909182911680610b9b576040517fd08ec49700000000000000000000000000000000000000000000000000000000815260040160405180910390fd5b6000816001600160a01b03166398c7adf36040518163ffffffff1660e01b81526004016040805180830381865afa158015610bda573d6000803e3d6000fd5b505050506040513d601f19601f82011682018060405250810190610bfe9190614088565b6fffffffffffffffffffffffffffffffff16915060009050670de0b6b3a7640000610c2983826140f1565b846001600160a01b031663e71bfbeb6040518163ffffffff1660e01b8152600401602060405180830381865afa158015610c67573d6000803e3d6000fd5b505050506040513d601f19601f82011682018060405250810190610c8b9190614104565b610c95919061411d565b610c9f9190614134565b9050808611610cae5785610cb0565b805b6040517fff20edb0000000000000000000000000000000000000000000000000000000008152600481018290529096506000906001600160a01b0385169063ff20edb0906024016040805180830381865afa158015610d13573d6000803e3d6000fd5b505050506040513d601f19601f82011682018060405250810190610d37919061416f565b509698969750505050505050565b6001600160a01b038083166000908152600760205260409020541680610d97576040517fd08ec49700000000000000000000000000000000000000000000000000000000815260040160405180910390fd5b6040517f13aea39e000000000000000000000000000000000000000000000000000000008152336004820152602481018390526001600160a01b038216906313aea39e9034906044015b6000604051808303818588803b158015610dfa57600080fd5b505af1158015610e0e573d6000803e3d6000fd5b5050505050505050565b60606000610e2583612ea4565b90506000815167ffffffffffffffff811115610e4357610e43613c6d565b604051908082528060200260200182016040528015610e7c57816020015b610e69613723565b815260200190600190039081610e615790505b50905060005b8251811015610ed257610ead838281518110610ea057610ea0614193565b6020026020010151610fb1565b828281518110610ebf57610ebf614193565b6020908102919091010152600101610e82565b509392505050565b6060610ee660096131a6565b821115610efa57610ef760096131a6565b91505b60008267ffffffffffffffff811115610f1557610f15613c6d565b604051908082528060200260200182016040528015610f3e578160200160208202803683370190505b50905060005b83811015610faa57610f78816001610f5c60096131a6565b610f6691906140f1565b610f7091906140f1565b6009906131b0565b828281518110610f8a57610f8a614193565b6001600160a01b0390921660209283029190910190910152600101610f44565b5092915050565b610fb9613723565b6001600160a01b03808316600090815260076020526040902054168061100b576040517fd08ec49700000000000000000000000000000000000000000000000000000000815260040160405180910390fd5b6000806000806000806000876001600160a01b03166383a9129f6040518163ffffffff1660e01b815260040160e060405180830381865afa158015611054573d6000803e3d6000fd5b505050506040513d601f19601f8201168201806040525081019061107891906141d2565b9650965096509650965096509650600080896001600160a01b03166398c7adf36040518163ffffffff1660e01b81526004016040805180830381865afa1580156110c6573d6000803e3d6000fd5b505050506040513d601f19601f820116820180604052508101906110ea9190614088565b915091506040518061020001604052808d6001600160a01b031681526020018b6001600160a01b031681526020018d6001600160a01b03166306fdde036040518163ffffffff1660e01b8152600401600060405180830381865afa158015611156573d6000803e3d6000fd5b505050506040513d6000823e601f3d908101601f1916820160405261117e9190810190614281565b81526020018d6001600160a01b03166395d89b416040518163ffffffff1660e01b8152600401600060405180830381865afa1580156111c1573d6000803e3d6000fd5b505050506040513d6000823e601f3d908101601f191682016040526111e99190810190614281565b81526020018a151581526020018915158152602001888152602001878152602001868152602001848152602001858152602001836fffffffffffffffffffffffffffffffff168152602001826fffffffffffffffffffffffffffffffff1681526020018d6001600160a01b031663d9a196356040518163ffffffff1660e01b8152600401600060405180830381865afa15801561128a573d6000803e3d6000fd5b505050506040513d6000823e601f3d908101601f191682016040526112b291908101906142b6565b81526001600160a01b03808f166000908152600860209081526040918290205483168185015281517f16f0115b00000000000000000000000000000000000000000000000000000000815282519290940193928f16926316f0115b92600480830193928290030181865afa15801561132e573d6000803e3d6000fd5b505050506040513d601f19601f8201168201806040525081019061135291906143d7565b6001600160a01b031690529c9b505050505050505050505050565b606061137960096131c3565b905090565b600061137960096131a6565b606061139660096131a6565b8211156113aa576113a760096131a6565b91505b60006113b583610eda565b905060008367ffffffffffffffff8111156113d2576113d2613c6d565b60405190808252806020026020018201604052801561140b57816020015b6113f8613723565b8152602001906001900390816113f05790505b50905060005b84811015610ed25761142e838281518110610ea057610ea0614193565b82828151811061144057611440614193565b6020908102919091010152600101611411565b6001600160a01b038083166000908152600760205260408120549091829116806114a9576040517fd08ec49700000000000000000000000000000000000000000000000000000000815260040160405180910390fd5b6040517f73d796b2000000000000000000000000000000000000000000000000000000008152600481018590526000906001600160a01b038316906373d796b2906024016040805180830381865afa158015611509573d6000803e3d6000fd5b505050506040513d601f19601f8201168201806040525081019061152d919061416f565b5090506000826001600160a01b031663b99f60736040518163ffffffff1660e01b8152600401602060405180830381865afa158015611570573d6000803e3d6000fd5b505050506040513d601f19601f820116820180604052508101906115949190614104565b836001600160a01b031663782e1e6c6040518163ffffffff1660e01b8152600401602060405180830381865afa1580156115d2573d6000803e3d6000fd5b505050506040513d601f19601f820116820180604052508101906115f69190614104565b61160091906140f1565b905080821115611694576040517faf7695450000000000000000000000000000000000000000000000000000000081526004810182905290915081906001600160a01b0384169063af769545906024016040805180830381865afa15801561166c573d6000803e3d6000fd5b505050506040513d601f19601f82011682018060405250810190611690919061416f565b5095505b509395939450505050565b6116a76131d0565b66470de4df8200008167ffffffffffffffff1611156116f2576040517fc601b3d600000000000000000000000000000000000000000000000000000000815260040160405180910390fd5b6001546040805167ffffffffffffffff80851682527401000000000000000000000000000000000000000090930490921660208301527f366b5b44ba8f65391ab8a04d7aec789e5b7f116ab744bbeb4cb3c623024e3450910160405180910390a16001805467ffffffffffffffff90921674010000000000000000000000000000000000000000027fffffffff0000000000000000ffffffffffffffffffffffffffffffffffffffff909216919091179055565b606060006117b4848461191c565b90506000815167ffffffffffffffff8111156117d2576117d2613c6d565b60405190808252806020026020018201604052801561180b57816020015b6117f8613723565b8152602001906001900390816117f05790505b50905060005b82518110156118545761182f838281518110610ea057610ea0614193565b82828151811061184157611841614193565b6020908102919091010152600101611811565b509150505b92915050565b6118676131d0565b6001600160a01b0381166118a7576040517ff54ee5d800000000000000000000000000000000000000000000000000000000815260040160405180910390fd5b6003546040516001600160a01b03918216918316907f7d2b3ed9c23869a5d29faed5ef4060b553095e08ee3a5d676d73249f469432fb90600090a3600380547fffffffffffffffffffffffff0000000000000000000000000000000000000000166001600160a01b0392909216919091179055565b6060818311806119405750600161193360096131a6565b61193d91906140f1565b82115b15611977576040517faa9b9b6c00000000000000000000000000000000000000000000000000000000815260040160405180910390fd5b600061198384846140f1565b61198e9060016143f4565b67ffffffffffffffff8111156119a6576119a6613c6d565b6040519080825280602002602001820160405280156119cf578160200160208202803683370190505b509050835b838111610ed2576119e66009826131b0565b826119f187846140f1565b81518110611a0157611a01614193565b6001600160a01b03909216602092830291909101909101526001016119d4565b611a296131d0565b6658d15e17628000611a3e6020830183614407565b6fffffffffffffffffffffffffffffffff161180611a8357506658d15e17628000611a6f6040830160208401614407565b6fffffffffffffffffffffffffffffffff16115b15611aba576040517fee787de700000000000000000000000000000000000000000000000000000000815260040160405180910390fd5b7f98ca6945947d20e99ed65ea51012bdc58f0e4b2dfa745ea2519b0cdaf0c4ecc0611ae86020830183614407565b6006546fffffffffffffffffffffffffffffffff16611b0d6040850160208601614407565b600654604080516fffffffffffffffffffffffffffffffff95861681529385166020850152918416838301527001000000000000000000000000000000009004909216606082015290519081900360800190a1806006611b6d8282614424565b505050565b6001600160a01b03808316600090815260076020526040812054909182911680611bc8576040517fd08ec49700000000000000000000000000000000000000000000000000000000815260040160405180910390fd5b6000816001600160a01b031663b99f60736040518163ffffffff1660e01b8152600401602060405180830381865afa158015611c08573d6000803e3d6000fd5b505050506040513d601f19601f82011682018060405250810190611c2c9190614104565b9050808511611c3b5784611c3d565b805b6040517f366ad250000000000000000000000000000000000000000000000000000000008152600481018290529095506000906001600160a01b0384169063366ad250906024015b6040805180830381865afa158015611ca1573d6000803e3d6000fd5b505050506040513d601f19601f82011682018060405250810190611cc5919061416f565b5095979596505050505050565b6001600160a01b038084166000908152600760205260409020541680611d24576040517fd08ec49700000000000000000000000000000000000000000000000000000000815260040160405180910390fd5b6040517f23b872dd000000000000000000000000000000000000000000000000000000008152336004820152306024820152604481018490526001600160a01b038516906323b872dd906064016020604051808303816000875af1158015611d90573d6000803e3d6000fd5b505050506040513d601f19601f82011682018060405250810190611db49190614485565b506040517f5e7195ea00000000000000000000000000000000000000000000000000000000815233600482015260248101849052604481018390526001600160a01b03821690635e7195ea90606401600060405180830381600087803b158015610dfa57600080fd5b611e256131d0565b670d99a8cec7e200008167ffffffffffffffff161115611e71576040517f56e0a53a00000000000000000000000000000000000000000000000000000000815260040160405180910390fd5b6002546040805167ffffffffffffffff80851682527401000000000000000000000000000000000000000090930490921660208301527f08914199c18d6b486e5e388cbc36aa9a324c7000a27e5c8e51bb2319c22b4b5a910160405180910390a16002805467ffffffffffffffff90921674010000000000000000000000000000000000000000027fffffffff0000000000000000ffffffffffffffffffffffffffffffffffffffff909216919091179055565b6060806000611f3460096131a6565b67ffffffffffffffff811115611f4c57611f4c613c6d565b604051908082528060200260200182016040528015611f75578160200160208202803683370190505b5090506000611f8460096131a6565b67ffffffffffffffff811115611f9c57611f9c613c6d565b604051908082528060200260200182016040528015611fc5578160200160208202803683370190505b50905060005b611fd560096131a6565b811015612062576000611fe96009836131b0565b905080848381518110611ffe57611ffe614193565b6001600160a01b03928316602091820292909201810191909152828216600090815260079091526040902054845191169084908490811061204157612041614193565b6001600160a01b039092166020928302919091019091015250600101611fcb565b5090939092509050565b6120746131d0565b61207e6000613216565b565b6001600160a01b038083166000908152600760205260408120549091829116806120d6576040517fd08ec49700000000000000000000000000000000000000000000000000000000815260040160405180910390fd5b6000816001600160a01b031663b99f60736040518163ffffffff1660e01b8152600401602060405180830381865afa158015612116573d6000803e3d6000fd5b505050506040513d601f19601f8201168201806040525081019061213a9190614104565b826001600160a01b031663782e1e6c6040518163ffffffff1660e01b8152600401602060405180830381865afa158015612178573d6000803e3d6000fd5b505050506040513d601f19601f8201168201806040525081019061219c9190614104565b6121a691906140f1565b90508085116121b557846121b7565b805b6040517faf769545000000000000000000000000000000000000000000000000000000008152600481018290529095506000906001600160a01b0384169063af76954590602401611c85565b61220b6131d0565b6001600160a01b03811661224b576040517ff54ee5d800000000000000000000000000000000000000000000000000000000815260040160405180910390fd5b6001546040516001600160a01b03918216918316907f011d982f9c7daa6919c98b12f31dc0ffa5271c08d434f48c17e30861d90141b790600090a3600180547fffffffffffffffffffffffff0000000000000000000000000000000000000000166001600160a01b0392909216919091179055565b606060006122ce60096131a6565b67ffffffffffffffff8111156122e6576122e6613c6d565b60405190808252806020026020018201604052801561231f57816020015b61230c613723565b8152602001906001900390816123045790505b50905060005b61232f60096131a6565b8110156123745760006123436009836131b0565b905061234e81610fb1565b83838151811061236057612360614193565b602090810291909101015250600101612325565b50919050565b600354600090819074010000000000000000000000000000000000000000900467ffffffffffffffff163410156123dd576040517f6128558200000000000000000000000000000000000000000000000000000000815260040160405180910390fd5b6000806123ea888861327e565b60035460055460015460408d01519496509294506001600160a01b038086169463d47919d194889483169390921691670de0b6b3a7640000916124509167ffffffffffffffff74010000000000000000000000000000000000000000909104169061411d565b61245a9190614134565b8d6040015161246991906140f1565b60025460408f0151670de0b6b3a7640000916124a8917401000000000000000000000000000000000000000090910467ffffffffffffffff169061411d565b6124b29190614134565b6040517fffffffff0000000000000000000000000000000000000000000000000000000060e088901b1681526001600160a01b03958616600482015293851660248501529390911660448301526064820152608481019190915287516fffffffffffffffffffffffffffffffff90811660a48301526020890151811660c483015260065490811660e483015260801c61010482015261012401600060405180830381600087803b15801561256557600080fd5b505af1158015612579573d6000803e3d6000fd5b50506004546003546040516001600160a01b03909216935067ffffffffffffffff740100000000000000000000000000000000000000009091041680156108fc029250906000818181858888f193505050501580156125dc573d6000803e3d6000fd5b5060035474010000000000000000000000000000000000000000900467ffffffffffffffff163411156126bb576003546001600160a01b0382169063ccebd4ec906126499074010000000000000000000000000000000000000000900467ffffffffffffffff16346140f1565b885160405160e084901b7fffffffff0000000000000000000000000000000000000000000000000000000016815233600482015260248101919091526044016000604051808303818588803b1580156126a157600080fd5b505af11580156126b5573d6000803e3d6000fd5b50505050505b6003546040516001600160a01b0391821681528282169184169033907f30c867ed10ab93f8180b5a478ee20db2f435900ea9652185538d5029abc76ff59060200160405180910390a49097909650945050505050565b6060806000612720858561191c565b90506000815167ffffffffffffffff81111561273e5761273e613c6d565b604051908082528060200260200182016040528015612767578160200160208202803683370190505b50905060005b82518110156127fa576007600084838151811061278c5761278c614193565b60200260200101516001600160a01b03166001600160a01b0316815260200190815260200160002060009054906101000a90046001600160a01b03168282815181106127da576127da614193565b6001600160a01b039092166020928302919091019091015260010161276d565b50909590945092505050565b61280e6131d0565b6001600160a01b03811661284e576040517ff54ee5d800000000000000000000000000000000000000000000000000000000815260040160405180910390fd5b6005546040516001600160a01b03918216918316907fdae7fd9910037181c21be2d548cd7c1e895617bb37c10b5e52168db185e9da6090600090a3600580547fffffffffffffffffffffffff0000000000000000000000000000000000000000166001600160a01b0392909216919091179055565b60608060006128d184612ea4565b90506000815167ffffffffffffffff8111156128ef576128ef613c6d565b604051908082528060200260200182016040528015612918578160200160208202803683370190505b50905060005b82518110156129ab576007600084838151811061293d5761293d614193565b60200260200101516001600160a01b03166001600160a01b0316815260200190815260200160002060009054906101000a90046001600160a01b031682828151811061298b5761298b614193565b6001600160a01b039092166020928302919091019091015260010161291e565b509094909350915050565b6060806129c360096131a6565b8311156129d7576129d460096131a6565b92505b60006129e284610eda565b905060008467ffffffffffffffff8111156129ff576129ff613c6d565b604051908082528060200260200182016040528015612a28578160200160208202803683370190505b50905060005b858110156129ab5760076000848381518110612a4c57612a4c614193565b60200260200101516001600160a01b03166001600160a01b0316815260200190815260200160002060009054906101000a90046001600160a01b0316828281518110612a9a57612a9a614193565b6001600160a01b0390921660209283029190910190910152600101612a2e565b6001600160a01b038084166000908152600760205260409020541680612b0c576040517fd08ec49700000000000000000000000000000000000000000000000000000000815260040160405180910390fd5b6040517fff20edb0000000000000000000000000000000000000000000000000000000008152600481018490526000906001600160a01b0383169063ff20edb0906024016040805180830381865afa158015612b6c573d6000803e3d6000fd5b505050506040513d601f19601f82011682018060405250810190612b90919061416f565b506040517f23b872dd000000000000000000000000000000000000000000000000000000008152336004820152306024820152604481018290529091506001600160a01b038616906323b872dd906064016020604051808303816000875af1158015612c00573d6000803e3d6000fd5b505050506040513d601f19601f82011682018060405250810190612c249190614485565b506040517fbb9ae51a00000000000000000000000000000000000000000000000000000000815233600482015260248101859052604481018490526001600160a01b0383169063bb9ae51a90606401600060405180830381600087803b158015612c8d57600080fd5b505af1158015612ca1573d6000803e3d6000fd5b505050505050505050565b6001600160a01b0381166000908152600b60205260408120611859906131a6565b6001600160a01b038083166000908152600760205260409020541680612d1f576040517fd08ec49700000000000000000000000000000000000000000000000000000000815260040160405180910390fd5b6040517fccebd4ec000000000000000000000000000000000000000000000000000000008152336004820152602481018390526001600160a01b0382169063ccebd4ec903490604401610de1565b612d986040518060800160405280600081526020016000815260200160008152602001600081525090565b60408051608081018252600080825260208201819052918101829052606081018290529080846003811115612dcf57612dcf6144a0565b03612df257612dde8686612080565b808452606084018290529095509050612e9b565b6001846003811115612e0657612e066144a0565b03612e2d57612e158686611b72565b60208401829052604084018190529095509050612e9b565b6002846003811115612e4157612e416144a0565b03612e6457612e508686611453565b818452606084018190529095509050612e9b565b6003846003811115612e7857612e786144a0565b03612e9b57612e878686610b45565b602084018190526040840182905290955090505b50949350505050565b6001600160a01b0381166000908152600b60205260409020606090611859906131c3565b612ed06131d0565b6001600160a01b038116612f10576040517ff54ee5d800000000000000000000000000000000000000000000000000000000815260040160405180910390fd5b6002546040516001600160a01b03918216918316907faca78e2dda60af915cad4d77a34d60e84ff7ca48f9e8d1d9b5d9ba814d0f2b3a90600090a3600280547fffffffffffffffffffffffff0000000000000000000000000000000000000000166001600160a01b0392909216919091179055565b612f8d6131d0565b67016345785d8a00008167ffffffffffffffff161115612fd9576040517f306400d600000000000000000000000000000000000000000000000000000000815260040160405180910390fd5b6003546040805167ffffffffffffffff80851682527401000000000000000000000000000000000000000090930490921660208301527f905447e0171982edb1daeeea0380f9d6df2e3b9bdbb85f02eb826d1c53925b9a910160405180910390a16003805467ffffffffffffffff90921674010000000000000000000000000000000000000000027fffffffff0000000000000000ffffffffffffffffffffffffffffffffffffffff909216919091179055565b6130956131d0565b6001600160a01b0381166130d5576040517ff54ee5d800000000000000000000000000000000000000000000000000000000815260040160405180910390fd5b6004546040516001600160a01b03918216918316907f21eb548722a564f6e09f039f7aa858ae94c911910f3823b37af2250eeca4f40390600090a3600480547fffffffffffffffffffffffff0000000000000000000000000000000000000000166001600160a01b0392909216919091179055565b6131526131d0565b6001600160a01b03811661319a576040517f1e4fbdf7000000000000000000000000000000000000000000000000000000008152600060048201526024015b60405180910390fd5b6131a381613216565b50565b6000611859825490565b60006131bc83836135b3565b9392505050565b606060006131bc836135dd565b6000546001600160a01b0316331461207e576040517f118cdaa7000000000000000000000000000000000000000000000000000000008152336004820152602401613191565b600080546001600160a01b038381167fffffffffffffffffffffffff0000000000000000000000000000000000000000831681178455604051919092169283917f8be0079c531659141344cd1fd0a4f28419497f9722a3daafe3b4186f6b6457e09190a35050565b60008068056bc75e2d63100000846040015110156132c8576040517f49cc98e800000000000000000000000000000000000000000000000000000000815260040160405180910390fd5b6001546000906132e0906001600160a01b0316613639565b6002549091506000906132fb906001600160a01b0316613639565b6001600160a01b03838116600090815260076020526040902080547fffffffffffffffffffffffff000000000000000000000000000000000000000016918316919091179055905061334e6009836136c4565b50336000908152600b6020526040902061336890836136c4565b506001600160a01b0382166000818152600860205260409081902080547fffffffffffffffffffffffff00000000000000000000000000000000000000001633179055517fb632858e00000000000000000000000000000000000000000000000000000000815263b632858e906133e7908990899086906004016144cf565b600060405180830381600087803b15801561340157600080fd5b505af1158015613415573d6000803e3d6000fd5b5050600154604089015160009350670de0b6b3a7640000925061345a9174010000000000000000000000000000000000000000900467ffffffffffffffff169061411d565b6134649190614134565b600480546040517fa9059cbb0000000000000000000000000000000000000000000000000000000081526001600160a01b0391821692810192909252602482018390529192509084169063a9059cbb906044016020604051808303816000875af11580156134d6573d6000803e3d6000fd5b505050506040513d601f19601f820116820180604052508101906134fa9190614485565b506040517f095ea7b30000000000000000000000000000000000000000000000000000000081526001600160a01b0383811660048301527fffffffffffffffffffffffffffffffffffffffffffffffffffffffffffffffff602483015284169063095ea7b3906044016020604051808303816000875af1158015613582573d6000803e3d6000fd5b505050506040513d601f19601f820116820180604052508101906135a69190614485565b5091969095509350505050565b60008260000182815481106135ca576135ca614193565b9060005260206000200154905092915050565b60608160000180548060200260200160405190810160405280929190818152602001828054801561362d57602002820191906000526020600020905b815481526020019060010190808311613619575b50505050509050919050565b6000763d602d80600a3d3981f3363d3d373d3d3d363d730000008260601b60e81c176000526e5af43d82803e903d91602b57fd5bf38260781b17602052603760096000f090506001600160a01b0381166136bf576040517fc2f868f400000000000000000000000000000000000000000000000000000000815260040160405180910390fd5b919050565b60006131bc836001600160a01b038416600081815260018301602052604081205461371b57508154600181810184556000848152602080822090930184905584548482528286019093526040902091909155611859565b506000611859565b60405180610200016040528060006001600160a01b0316815260200160006001600160a01b031681526020016060815260200160608152602001600015158152602001600015158152602001600081526020016000815260200160008152602001600081526020016000815260200160006fffffffffffffffffffffffffffffffff16815260200160006fffffffffffffffffffffffffffffffff1681526020016137fd6040518060c001604052806060815260200160608152602001606081526020016060815260200160608152602001606081525090565b815260006020820181905260409091015290565b6001600160a01b03811681146131a357600080fd5b6000806040838503121561383957600080fd5b823561384481613811565b946020939093013593505050565b60006020828403121561386457600080fd5b81356131bc81613811565b60005b8381101561388a578181015183820152602001613872565b50506000910152565b600081518084526138ab81602086016020860161386f565b601f01601f19169290920160200192915050565b6000815160c084526138d460c0850182613893565b9050602083015184820360208601526138ed8282613893565b915050604083015184820360408601526139078282613893565b915050606083015184820360608601526139218282613893565b9150506080830151848203608086015261393b8282613893565b91505060a083015184820360a08601526139558282613893565b95945050505050565b80516001600160a01b031682526000610200602083015161398a60208601826001600160a01b03169052565b5060408301518160408601526139a282860182613893565b915050606083015184820360608601526139bc8282613893565b91505060808301516139d2608086018215159052565b5060a08301516139e660a086018215159052565b5060c0838101519085015260e08084015190850152610100808401519085015261012080840151908501526101408084015190850152610160808401516fffffffffffffffffffffffffffffffff8116828701525050610180838101516fffffffffffffffffffffffffffffffff81168683015250506101a08084015185830382870152613a7483826138bf565b925050506101c080840151613a93828701826001600160a01b03169052565b50506101e0928301516001600160a01b03169390920192909252919050565b6000602080830181845280855180835260408601915060408160051b870101925083870160005b82811015613b25577fffffffffffffffffffffffffffffffffffffffffffffffffffffffffffffffc0888603018452613b1385835161395e565b94509285019290850190600101613ad9565b5092979650505050505050565b600060208284031215613b4457600080fd5b5035919050565b600081518084526020808501945080840160005b83811015613b845781516001600160a01b031687529582019590820190600101613b5f565b509495945050505050565b6020815260006131bc6020830184613b4b565b6020815260006131bc602083018461395e565b600060208284031215613bc757600080fd5b813567ffffffffffffffff811681146131bc57600080fd5b60008060408385031215613bf257600080fd5b50508035926020909101359150565b60006040828403121561237457600080fd5b600080600060608486031215613c2857600080fd5b8335613c3381613811565b95602085013595506040909401359392505050565b604081526000613c5b6040830185613b4b565b82810360208401526139558185613b4b565b7f4e487b7100000000000000000000000000000000000000000000000000000000600052604160045260246000fd5b60405160c0810167ffffffffffffffff81118282101715613cbf57613cbf613c6d565b60405290565b6040516060810167ffffffffffffffff81118282101715613cbf57613cbf613c6d565b604051601f8201601f1916810167ffffffffffffffff81118282101715613d1157613d11613c6d565b604052919050565b600067ffffffffffffffff821115613d3357613d33613c6d565b50601f01601f191660200190565b600082601f830112613d5257600080fd5b8135613d65613d6082613d19565b613ce8565b818152846020838601011115613d7a57600080fd5b816020850160208301376000918101602001919091529392505050565b600060c08284031215613da957600080fd5b613db1613c9c565b9050813567ffffffffffffffff80821115613dcb57600080fd5b613dd785838601613d41565b83526020840135915080821115613ded57600080fd5b613df985838601613d41565b60208401526040840135915080821115613e1257600080fd5b613e1e85838601613d41565b60408401526060840135915080821115613e3757600080fd5b613e4385838601613d41565b60608401526080840135915080821115613e5c57600080fd5b613e6885838601613d41565b608084015260a0840135915080821115613e8157600080fd5b50613e8e84828501613d41565b60a08301525092915050565b600060208284031215613eac57600080fd5b6040516020810181811067ffffffffffffffff82111715613ecf57613ecf613c6d565b6040529135825250919050565b6fffffffffffffffffffffffffffffffff811681146131a357600080fd5b600060408284031215613f0c57600080fd5b6040516040810181811067ffffffffffffffff82111715613f2f57613f2f613c6d565b6040529050808235613f4081613edc565b81526020830135613f5081613edc565b6020919091015292915050565b60008060008060a08587031215613f7357600080fd5b843567ffffffffffffffff80821115613f8b57600080fd5b9086019060608289031215613f9f57600080fd5b613fa7613cc5565b823582811115613fb657600080fd5b613fc28a828601613d41565b825250602083013582811115613fd757600080fd5b613fe38a828601613d41565b6020830152506040830135604082015280965050602087013591508082111561400b57600080fd5b5061401887828801613d97565b9350506140288660408701613e9a565b91506140378660608701613efa565b905092959194509250565b60008060006060848603121561405757600080fd5b833561406281613811565b92506020840135915060408401356004811061407d57600080fd5b809150509250925092565b6000806040838503121561409b57600080fd5b82516140a681613edc565b60208401519092506140b781613edc565b809150509250929050565b7f4e487b7100000000000000000000000000000000000000000000000000000000600052601160045260246000fd5b81810381811115611859576118596140c2565b60006020828403121561411657600080fd5b5051919050565b8082028115828204841417611859576118596140c2565b60008261416a577f4e487b7100000000000000000000000000000000000000000000000000000000600052601260045260246000fd5b500490565b6000806040838503121561418257600080fd5b505080516020909101519092909150565b7f4e487b7100000000000000000000000000000000000000000000000000000000600052603260045260246000fd5b805180151581146136bf57600080fd5b600080600080600080600060e0888a0312156141ed57600080fd5b6141f6886141c2565b9650614204602089016141c2565b604089015160608a015160808b015160a08c015160c0909c01519a9d939c50919a90999198509650945092505050565b600082601f83011261424557600080fd5b8151614253613d6082613d19565b81815284602083860101111561426857600080fd5b61427982602083016020870161386f565b949350505050565b60006020828403121561429357600080fd5b815167ffffffffffffffff8111156142aa57600080fd5b61427984828501614234565b6000602082840312156142c857600080fd5b815167ffffffffffffffff808211156142e057600080fd5b9083019060c082860312156142f457600080fd5b6142fc613c9c565b82518281111561430b57600080fd5b61431787828601614234565b82525060208301518281111561432c57600080fd5b61433887828601614234565b60208301525060408301518281111561435057600080fd5b61435c87828601614234565b60408301525060608301518281111561437457600080fd5b61438087828601614234565b60608301525060808301518281111561439857600080fd5b6143a487828601614234565b60808301525060a0830151828111156143bc57600080fd5b6143c887828601614234565b60a08301525095945050505050565b6000602082840312156143e957600080fd5b81516131bc81613811565b80820180821115611859576118596140c2565b60006020828403121561441957600080fd5b81356131bc81613edc565b813561442f81613edc565b6fffffffffffffffffffffffffffffffff811690507fffffffffffffffffffffffffffffffff000000000000000000000000000000008181845416178355602084013561447b81613edc565b60801b1617905550565b60006020828403121561449757600080fd5b6131bc826141c2565b7f4e487b7100000000000000000000000000000000000000000000000000000000600052602160045260246000fd5b60608152600084516060808401526144ea60c0840182613893565b905060208601517fffffffffffffffffffffffffffffffffffffffffffffffffffffffffffffffa08483030160808501526145258282613893565b915050604086015160a0840152828103602084015261454481866138bf565b9150506001600160a01b038316604083015294935050505056fea164736f6c6343000814000a","linkReferences":{}},"methodIdentifiers":{"FRACTION_DENOMINATOR()":"5d643493","MAX_BONDING_FRACTION()":"03ca5220","MAX_BOOSTER_FRACTION()":"1785b084","MAX_CREATION_COST()":"196594f4","MAX_GAUGE_FEE()":"333c633d","MIN_INITIAL_SUPPLY()":"bd00ba24","bondingCurveFraction()":"952c9ca2","boosterFraction()":"871010d6","buyExactEth(address,uint256)":"ccebd4ec","buyExactTokens(address,uint256)":"13aea39e","createLaunchpadToken((string,string,uint256),(string,string,string,string,string,string),(uint256),(uint128,uint128))":"a0b72cf7","creationCost()":"14e60813","curve()":"7165485d","gaugeFees()":"293833ba","gaugeImplementation()":"eda5458a","getAllTokens()":"2a5c792a","getAllTokensAndGauges()":"6e9ec503","getAllTokensInfo()":"9a24a25b","getMostRecentTokens(uint256)":"1e897526","getMostRecentTokensAndGauges(uint256)":"b83dd600","getMostRecentTokensInfo(uint256)":"3c82bab7","getTokenInfo(address)":"1f69565f","getTokens(uint256,uint256)":"494cfc6c","getTokensAndGauges(uint256,uint256)":"a1aa8fa2","getTokensAndGaugesByCreator(address)":"b3cb2dd5","getTokensByCreator(address)":"d5c71275","getTokensCount()":"3962f82d","getTokensCountByCreator(address)":"c9e00d0a","getTokensInfo(uint256,uint256)":"45d28c90","getTokensInfoByCreator(address)":"1bc9c86a","lpReceiver()":"1f0c57fc","owner()":"8da5cb5b","quote(address,uint256,uint8)":"d105005b","quoteBuyExactEth(address,uint256)":"432969ba","quoteBuyExactTokens(address,uint256)":"7a6c84a3","quoteSellExactEth(address,uint256)":"05598972","quoteSellExactTokens(address,uint256)":"55e6f108","renounceOwnership()":"715018a6","sellExactEth(address,uint256,uint256)":"bb9ae51a","sellExactTokens(address,uint256,uint256)":"5e7195ea","setBondingCurveFraction(uint64)":"5ff9444a","setBoosterFraction(uint64)":"45afe70e","setCreationCost(uint64)":"ecc48817","setCurve(address)":"48dc9d2b","setGaugeFees((uint128,uint128))":"4c861dfe","setGaugeImplementation(address)":"dc7d24fa","setLpReceiver(address)":"ad8f3467","setTokenImplementation(address)":"88282e2a","setTreasury(address)":"f0f44260","tokenImplementation()":"2f3a3d5d","tokenToCreator(address)":"f27f8011","tokenToGauge(address)":"8ee069d4","transferOwnership(address)":"f2fde38b","treasury()":"61d027b3"},"id":66}